{
  "contracts/MessageBoard.sol": {
    "MessageBoard": {
      "abi": [
        {
          "inputs": [
            {
              "internalType": "address",
              "name": "_signVerifier",
              "type": "address"
            },
            {
              "internalType": "address",
              "name": "_rootVerifier",
              "type": "address"
            },
            {
              "internalType": "address",
              "name": "_revealVerifier",
              "type": "address"
            }
          ],
          "stateMutability": "nonpayable",
          "type": "constructor"
        },
        {
          "anonymous": false,
          "inputs": [
            {
              "indexed": true,
              "internalType": "string",
              "name": "groupname",
              "type": "string"
            },
            {
              "indexed": false,
              "internalType": "uint256",
              "name": "root",
              "type": "uint256"
            },
            {
              "indexed": false,
              "internalType": "uint256[]",
              "name": "leaves",
              "type": "uint256[]"
            },
            {
              "indexed": true,
              "internalType": "uint256",
              "name": "timestamp",
              "type": "uint256"
            }
          ],
          "name": "GroupCreated",
          "type": "event"
        },
        {
          "anonymous": false,
          "inputs": [
            {
              "indexed": true,
              "internalType": "string",
              "name": "groupname",
              "type": "string"
            },
            {
              "indexed": true,
              "internalType": "string",
              "name": "message",
              "type": "string"
            },
            {
              "indexed": false,
              "internalType": "uint256",
              "name": "messageAttestation",
              "type": "uint256"
            },
            {
              "indexed": true,
              "internalType": "uint256",
              "name": "timestamp",
              "type": "uint256"
            }
          ],
          "name": "MessageAdded",
          "type": "event"
        },
        {
          "anonymous": false,
          "inputs": [
            {
              "indexed": true,
              "internalType": "string",
              "name": "groupname",
              "type": "string"
            },
            {
              "indexed": true,
              "internalType": "string",
              "name": "message",
              "type": "string"
            },
            {
              "indexed": false,
              "internalType": "uint256",
              "name": "leaf",
              "type": "uint256"
            },
            {
              "indexed": true,
              "internalType": "uint256",
              "name": "timestamp",
              "type": "uint256"
            }
          ],
          "name": "MessageRevealed",
          "type": "event"
        },
        {
          "inputs": [
            {
              "internalType": "string",
              "name": "groupname",
              "type": "string"
            },
            {
              "internalType": "uint256[]",
              "name": "leaves",
              "type": "uint256[]"
            },
            {
              "internalType": "uint256[2]",
              "name": "_a",
              "type": "uint256[2]"
            },
            {
              "internalType": "uint256[2][2]",
              "name": "_b",
              "type": "uint256[2][2]"
            },
            {
              "internalType": "uint256[2]",
              "name": "_c",
              "type": "uint256[2]"
            },
            {
              "internalType": "uint256[1]",
              "name": "_input",
              "type": "uint256[1]"
            }
          ],
          "name": "createGroup",
          "outputs": [],
          "stateMutability": "nonpayable",
          "type": "function"
        },
        {
          "inputs": [
            {
              "internalType": "string",
              "name": "_message",
              "type": "string"
            },
            {
              "internalType": "uint256[2]",
              "name": "_a",
              "type": "uint256[2]"
            },
            {
              "internalType": "uint256[2][2]",
              "name": "_b",
              "type": "uint256[2][2]"
            },
            {
              "internalType": "uint256[2]",
              "name": "_c",
              "type": "uint256[2]"
            },
            {
              "internalType": "uint256[4]",
              "name": "_input",
              "type": "uint256[4]"
            }
          ],
          "name": "revealMessage",
          "outputs": [],
          "stateMutability": "nonpayable",
          "type": "function"
        },
        {
          "inputs": [
            {
              "internalType": "string",
              "name": "message",
              "type": "string"
            },
            {
              "internalType": "uint256[2]",
              "name": "_a",
              "type": "uint256[2]"
            },
            {
              "internalType": "uint256[2][2]",
              "name": "_b",
              "type": "uint256[2][2]"
            },
            {
              "internalType": "uint256[2]",
              "name": "_c",
              "type": "uint256[2]"
            },
            {
              "internalType": "uint256[3]",
              "name": "_input",
              "type": "uint256[3]"
            }
          ],
          "name": "sendMessage",
          "outputs": [],
          "stateMutability": "nonpayable",
          "type": "function"
        }
      ],
      "evm": {
        "bytecode": {
          "linkReferences": {},
          "object": "60806040523480156200001157600080fd5b50604051620020843803806200208483398181016040528101906200003791906200011a565b82600460006101000a81548173ffffffffffffffffffffffffffffffffffffffff021916908373ffffffffffffffffffffffffffffffffffffffff16021790555080600560006101000a81548173ffffffffffffffffffffffffffffffffffffffff021916908373ffffffffffffffffffffffffffffffffffffffff16021790555081600660006101000a81548173ffffffffffffffffffffffffffffffffffffffff021916908373ffffffffffffffffffffffffffffffffffffffff160217905550505050620001be565b6000815190506200011481620001a4565b92915050565b6000806000606084860312156200013057600080fd5b6000620001408682870162000103565b9350506020620001538682870162000103565b9250506040620001668682870162000103565b9150509250925092565b60006200017d8262000184565b9050919050565b600073ffffffffffffffffffffffffffffffffffffffff82169050919050565b620001af8162000170565b8114620001bb57600080fd5b50565b611eb680620001ce6000396000f3fe608060405234801561001057600080fd5b50600436106100415760003560e01c806362ccdd27146100465780637bbb667814610062578063e5348dbc1461007e575b600080fd5b610060600480360381019061005b91906110fa565b61009a565b005b61007c60048036038101906100779190611069565b610426565b005b6100986004803603810190610093919061118b565b6107c2565b005b806002600481106100d4577f4e487b7100000000000000000000000000000000000000000000000000000000600052603260045260246000fd5b6020020151856040516020016100ea91906116a2565b6040516020818303038152906040528051906020012060001c14610143576040517f08c379a000000000000000000000000000000000000000000000000000000000815260040161013a90611845565b60405180910390fd5b600560009054906101000a900473ffffffffffffffffffffffffffffffffffffffff1673ffffffffffffffffffffffffffffffffffffffff16635fe8c13b858585856040518563ffffffff1660e01b81526004016101a4949392919061175e565b60206040518083038186803b1580156101bc57600080fd5b505afa1580156101d0573d6000803e3d6000fd5b505050506040513d601f19601f820116820180604052508101906101f49190611040565b610233576040517f08c379a000000000000000000000000000000000000000000000000000000000815260040161022a90611825565b60405180910390fd5b428560405161024291906116a2565b60405180910390206002600084600360048110610288577f4e487b7100000000000000000000000000000000000000000000000000000000600052603260045260246000fd5b602002015181526020019081526020016000206040516102a891906116b9565b60405180910390207fb077a2b990b47347a1fecb48750a0632f01f6a47702079e95bf12e46f053b2b48460006004811061030b577f4e487b7100000000000000000000000000000000000000000000000000000000600052603260045260246000fd5b602002015160405161031d9190611885565b60405180910390a460036002600083600360048110610365577f4e487b7100000000000000000000000000000000000000000000000000000000600052603260045260246000fd5b6020020151815260200190815260200160002060405161038591906116b9565b90815260200160405180910390206003016000826000600481106103d2577f4e487b7100000000000000000000000000000000000000000000000000000000600052603260045260246000fd5b602002015181526020019081526020016000208590806001815401808255809150506001900390600052602060002001600090919091909150908051906020019061041e929190610bc3565b505050505050565b6001600082600160038110610464577f4e487b7100000000000000000000000000000000000000000000000000000000600052603260045260246000fd5b6020020151815260200190815260200160002060009054906101000a900460ff166104c4576040517f08c379a00000000000000000000000000000000000000000000000000000000081526004016104bb906117c5565b60405180910390fd5b600460009054906101000a900473ffffffffffffffffffffffffffffffffffffffff1673ffffffffffffffffffffffffffffffffffffffff166311479fea858585856040518563ffffffff1660e01b81526004016105259493929190611717565b60206040518083038186803b15801561053d57600080fd5b505afa158015610551573d6000803e3d6000fd5b505050506040513d601f19601f820116820180604052508101906105759190611040565b6105b4576040517f08c379a00000000000000000000000000000000000000000000000000000000081526004016105ab90611805565b60405180910390fd5b600060026000836001600381106105f4577f4e487b7100000000000000000000000000000000000000000000000000000000600052603260045260246000fd5b60200201518152602001908152602001600020805461061290611bc9565b80601f016020809104026020016040519081016040528092919081815260200182805461063e90611bc9565b801561068b5780601f106106605761010080835404028352916020019161068b565b820191906000526020600020905b81548152906001019060200180831161066e57829003601f168201915b5050505050905042866040516106a191906116a2565b6040518091039020826040516106b791906116a2565b60405180910390207f7f4fd4e6b3a67d74f7618f0af66a42baff73e86818611cb295d4f9e95ed87fb28560006003811061071a577f4e487b7100000000000000000000000000000000000000000000000000000000600052603260045260246000fd5b602002015160405161072c9190611885565b60405180910390a460038160405161074491906116a2565b90815260200160405180910390206001018260006003811061078f577f4e487b7100000000000000000000000000000000000000000000000000000000600052603260045260246000fd5b60200201519080600181540180825580915050600190039060005260206000200160009091909190915055505050505050565b6000866040516107d291906116a2565b908152602001604051809103902060009054906101000a900460ff161561082e576040517f08c379a0000000000000000000000000000000000000000000000000000000008152600401610825906117a5565b60405180910390fd5b600160008260006001811061086c577f4e487b7100000000000000000000000000000000000000000000000000000000600052603260045260246000fd5b6020020151815260200190815260200160002060009054906101000a900460ff16156108cd576040517f08c379a00000000000000000000000000000000000000000000000000000000081526004016108c4906117e5565b60405180910390fd5b600660009054906101000a900473ffffffffffffffffffffffffffffffffffffffff1673ffffffffffffffffffffffffffffffffffffffff166343753b4d858585856040518563ffffffff1660e01b815260040161092e94939291906116d0565b60206040518083038186803b15801561094657600080fd5b505afa15801561095a573d6000803e3d6000fd5b505050506040513d601f19601f8201168201806040525081019061097e9190611040565b6109bd576040517f08c379a00000000000000000000000000000000000000000000000000000000081526004016109b490611865565b60405180910390fd5b42866040516109cc91906116a2565b60405180910390207f9d5dd5d55261e9d3049a8482e4abcbe9d22f1f658a9898f5d6ddb4ccc99086bd83600060018110610a2f577f4e487b7100000000000000000000000000000000000000000000000000000000600052603260045260246000fd5b602002015188604051610a439291906118a0565b60405180910390a36001600087604051610a5d91906116a2565b908152602001604051809103902060006101000a81548160ff021916908315150217905550600180600083600060018110610ac1577f4e487b7100000000000000000000000000000000000000000000000000000000600052603260045260246000fd5b6020020151815260200190815260200160002060006101000a81548160ff021916908315150217905550856002600083600060018110610b2a577f4e487b7100000000000000000000000000000000000000000000000000000000600052603260045260246000fd5b602002015181526020019081526020016000209080519060200190610b50929190610bc3565b506000600387604051610b6391906116a2565b9081526020016040518091039020905081600060018110610bad577f4e487b7100000000000000000000000000000000000000000000000000000000600052603260045260246000fd5b6020020151816000018190555050505050505050565b828054610bcf90611bc9565b90600052602060002090601f016020900481019282610bf15760008555610c38565b82601f10610c0a57805160ff1916838001178555610c38565b82800160010185558215610c38579182015b82811115610c37578251825591602001919060010190610c1c565b5b509050610c459190610c49565b5090565b5b80821115610c62576000816000905550600101610c4a565b5090565b6000610c79610c74846118f5565b6118d0565b90508082856040860282011115610c8f57600080fd5b60005b85811015610cbf5781610ca58882610f4d565b845260208401935060408301925050600181019050610c92565b5050509392505050565b6000610cdc610cd78461191b565b6118d0565b90508082856020860282011115610cf257600080fd5b60005b85811015610d225781610d08888261102b565b845260208401935060208301925050600181019050610cf5565b5050509392505050565b6000610d3f610d3a84611941565b6118d0565b90508082856020860282011115610d5557600080fd5b60005b85811015610d855781610d6b888261102b565b845260208401935060208301925050600181019050610d58565b5050509392505050565b6000610da2610d9d84611967565b6118d0565b90508082856020860282011115610db857600080fd5b60005b85811015610de85781610dce888261102b565b845260208401935060208301925050600181019050610dbb565b5050509392505050565b6000610e05610e008461198d565b6118d0565b90508082856020860282011115610e1b57600080fd5b60005b85811015610e4b5781610e31888261102b565b845260208401935060208301925050600181019050610e1e565b5050509392505050565b6000610e68610e63846119b3565b6118d0565b90508083825260208201905082856020860282011115610e8757600080fd5b60005b85811015610eb75781610e9d888261102b565b845260208401935060208301925050600181019050610e8a565b5050509392505050565b6000610ed4610ecf846119df565b6118d0565b905082815260208101848484011115610eec57600080fd5b610ef7848285611b87565b509392505050565b600082601f830112610f1057600080fd5b6002610f1d848285610c66565b91505092915050565b600082601f830112610f3757600080fd5b6001610f44848285610cc9565b91505092915050565b600082601f830112610f5e57600080fd5b6002610f6b848285610d2c565b91505092915050565b600082601f830112610f8557600080fd5b6003610f92848285610d8f565b91505092915050565b600082601f830112610fac57600080fd5b6004610fb9848285610df2565b91505092915050565b600082601f830112610fd357600080fd5b8135610fe3848260208601610e55565b91505092915050565b600081519050610ffb81611e52565b92915050565b600082601f83011261101257600080fd5b8135611022848260208601610ec1565b91505092915050565b60008135905061103a81611e69565b92915050565b60006020828403121561105257600080fd5b600061106084828501610fec565b91505092915050565b6000806000806000610180868803121561108257600080fd5b600086013567ffffffffffffffff81111561109c57600080fd5b6110a888828901611001565b95505060206110b988828901610f4d565b94505060606110ca88828901610eff565b93505060e06110db88828901610f4d565b9250506101206110ed88828901610f74565b9150509295509295909350565b60008060008060006101a0868803121561111357600080fd5b600086013567ffffffffffffffff81111561112d57600080fd5b61113988828901611001565b955050602061114a88828901610f4d565b945050606061115b88828901610eff565b93505060e061116c88828901610f4d565b92505061012061117e88828901610f9b565b9150509295509295909350565b60008060008060008061016087890312156111a557600080fd5b600087013567ffffffffffffffff8111156111bf57600080fd5b6111cb89828a01611001565b965050602087013567ffffffffffffffff8111156111e857600080fd5b6111f489828a01610fc2565b955050604061120589828a01610f4d565b945050608061121689828a01610eff565b93505061010061122889828a01610f4d565b92505061014061123a89828a01610f26565b9150509295509295509295565b60006112538383611325565b60408301905092915050565b600061126b8383611684565b60208301905092915050565b61128081611a67565b61128a8184611b02565b925061129582611a10565b8060005b838110156112c65781516112ad8782611247565b96506112b883611ab4565b925050600181019050611299565b505050505050565b6112d781611a72565b6112e18184611b0d565b92506112ec82611a1a565b8060005b8381101561131d578151611304878261125f565b965061130f83611ac1565b9250506001810190506112f0565b505050505050565b61132e81611a7d565b6113388184611b18565b925061134382611a24565b8060005b8381101561137457815161135b878261125f565b965061136683611ace565b925050600181019050611347565b505050505050565b61138581611a7d565b61138f8184611b23565b925061139a82611a24565b8060005b838110156113cb5781516113b2878261125f565b96506113bd83611ace565b92505060018101905061139e565b505050505050565b6113dc81611a88565b6113e68184611b2e565b92506113f182611a2e565b8060005b83811015611422578151611409878261125f565b965061141483611adb565b9250506001810190506113f5565b505050505050565b61143381611a93565b61143d8184611b39565b925061144882611a38565b8060005b83811015611479578151611460878261125f565b965061146b83611ae8565b92505060018101905061144c565b505050505050565b600061148c82611a9e565b6114968185611b44565b93506114a183611a42565b8060005b838110156114d25781516114b9888261125f565b97506114c483611af5565b9250506001810190506114a5565b5085935050505092915050565b60006114ea82611aa9565b6114f48185611b66565b9350611504818560208601611b96565b80840191505092915050565b6000815461151d81611bc9565b6115278186611b66565b94506001821660008114611542576001811461155357611586565b60ff19831686528186019350611586565b61155c85611a52565b60005b8381101561157e5781548189015260018201915060208101905061155f565b838801955050505b50505092915050565b600061159c601a83611b55565b91506115a782611c9b565b602082019050919050565b60006115bf602383611b55565b91506115ca82611cc4565b604082019050919050565b60006115e2604c83611b55565b91506115ed82611d13565b606082019050919050565b6000611605601583611b55565b915061161082611d88565b602082019050919050565b6000611628601483611b55565b915061163382611db1565b602082019050919050565b600061164b603c83611b55565b915061165682611dda565b604082019050919050565b600061166e601283611b55565b915061167982611e29565b602082019050919050565b61168d81611b7d565b82525050565b61169c81611b7d565b82525050565b60006116ae82846114df565b915081905092915050565b60006116c58284611510565b915081905092915050565b6000610120820190506116e6600083018761137c565b6116f36040830186611277565b61170060c083018561137c565b61170e6101008301846112ce565b95945050505050565b60006101608201905061172d600083018761137c565b61173a6040830186611277565b61174760c083018561137c565b6117556101008301846113d3565b95945050505050565b600061018082019050611774600083018761137c565b6117816040830186611277565b61178e60c083018561137c565b61179c61010083018461142a565b95945050505050565b600060208201905081810360008301526117be8161158f565b9050919050565b600060208201905081810360008301526117de816115b2565b9050919050565b600060208201905081810360008301526117fe816115d5565b9050919050565b6000602082019050818103600083015261181e816115f8565b9050919050565b6000602082019050818103600083015261183e8161161b565b9050919050565b6000602082019050818103600083015261185e8161163e565b9050919050565b6000602082019050818103600083015261187e81611661565b9050919050565b600060208201905061189a6000830184611693565b92915050565b60006040820190506118b56000830185611693565b81810360208301526118c78184611481565b90509392505050565b60006118da6118eb565b90506118e68282611bfb565b919050565b6000604051905090565b600067ffffffffffffffff8211156119105761190f611c5b565b5b602082029050919050565b600067ffffffffffffffff82111561193657611935611c5b565b5b602082029050919050565b600067ffffffffffffffff82111561195c5761195b611c5b565b5b602082029050919050565b600067ffffffffffffffff82111561198257611981611c5b565b5b602082029050919050565b600067ffffffffffffffff8211156119a8576119a7611c5b565b5b602082029050919050565b600067ffffffffffffffff8211156119ce576119cd611c5b565b5b602082029050602081019050919050565b600067ffffffffffffffff8211156119fa576119f9611c5b565b5b611a0382611c8a565b9050602081019050919050565b6000819050919050565b6000819050919050565b6000819050919050565b6000819050919050565b6000819050919050565b6000819050602082019050919050565b60008190508160005260206000209050919050565b600060029050919050565b600060019050919050565b600060029050919050565b600060039050919050565b600060049050919050565b600081519050919050565b600081519050919050565b6000602082019050919050565b6000602082019050919050565b6000602082019050919050565b6000602082019050919050565b6000602082019050919050565b6000602082019050919050565b600081905092915050565b600081905092915050565b600081905092915050565b600081905092915050565b600081905092915050565b600081905092915050565b600082825260208201905092915050565b600082825260208201905092915050565b600081905092915050565b60008115159050919050565b6000819050919050565b82818337600083830152505050565b60005b83811015611bb4578082015181840152602081019050611b99565b83811115611bc3576000848401525b50505050565b60006002820490506001821680611be157607f821691505b60208210811415611bf557611bf4611c2c565b5b50919050565b611c0482611c8a565b810181811067ffffffffffffffff82111715611c2357611c22611c5b565b5b80604052505050565b7f4e487b7100000000000000000000000000000000000000000000000000000000600052602260045260246000fd5b7f4e487b7100000000000000000000000000000000000000000000000000000000600052604160045260246000fd5b6000601f19601f8301169050919050565b7f47726f7570204e616d6520416c72656164792045786973747321000000000000600082015250565b7f5370656369666965642047726f757020526f6f7420446f6573204e6f7420457860008201527f6973740000000000000000000000000000000000000000000000000000000000602082015250565b7f526f6f7420416c7265616479204578697374732c20692e652e2074686520677260008201527f6f757020796f752061726520747279696e6720746f2063726561746520616c7260208201527f6561647920657869737473210000000000000000000000000000000000000000604082015250565b7f496e76616c6964204d6573736167652050726f6f660000000000000000000000600082015250565b7f496e76616c69642052657665616c2050726f6f66000000000000000000000000600082015250565b7f4d65737361676520737472696e6720646f6573206e6f74206d6174636820746860008201527f65206d6573736167652068617368207573656420696e2070726f6f6600000000602082015250565b7f496e76616c696420526f6f742050726f6f660000000000000000000000000000600082015250565b611e5b81611b71565b8114611e6657600080fd5b50565b611e7281611b7d565b8114611e7d57600080fd5b5056fea2646970667358221220ad8cb4125d0247fcee6df59f03a496dccc084fc23ea7b5bf29b4fef906670e5964736f6c63430008040033",
          "opcodes": "PUSH1 0x80 PUSH1 0x40 MSTORE CALLVALUE DUP1 ISZERO PUSH3 0x11 JUMPI PUSH1 0x0 DUP1 REVERT JUMPDEST POP PUSH1 0x40 MLOAD PUSH3 0x2084 CODESIZE SUB DUP1 PUSH3 0x2084 DUP4 CODECOPY DUP2 DUP2 ADD PUSH1 0x40 MSTORE DUP2 ADD SWAP1 PUSH3 0x37 SWAP2 SWAP1 PUSH3 0x11A JUMP JUMPDEST DUP3 PUSH1 0x4 PUSH1 0x0 PUSH2 0x100 EXP DUP2 SLOAD DUP2 PUSH20 0xFFFFFFFFFFFFFFFFFFFFFFFFFFFFFFFFFFFFFFFF MUL NOT AND SWAP1 DUP4 PUSH20 0xFFFFFFFFFFFFFFFFFFFFFFFFFFFFFFFFFFFFFFFF AND MUL OR SWAP1 SSTORE POP DUP1 PUSH1 0x5 PUSH1 0x0 PUSH2 0x100 EXP DUP2 SLOAD DUP2 PUSH20 0xFFFFFFFFFFFFFFFFFFFFFFFFFFFFFFFFFFFFFFFF MUL NOT AND SWAP1 DUP4 PUSH20 0xFFFFFFFFFFFFFFFFFFFFFFFFFFFFFFFFFFFFFFFF AND MUL OR SWAP1 SSTORE POP DUP2 PUSH1 0x6 PUSH1 0x0 PUSH2 0x100 EXP DUP2 SLOAD DUP2 PUSH20 0xFFFFFFFFFFFFFFFFFFFFFFFFFFFFFFFFFFFFFFFF MUL NOT AND SWAP1 DUP4 PUSH20 0xFFFFFFFFFFFFFFFFFFFFFFFFFFFFFFFFFFFFFFFF AND MUL OR SWAP1 SSTORE POP POP POP POP PUSH3 0x1BE JUMP JUMPDEST PUSH1 0x0 DUP2 MLOAD SWAP1 POP PUSH3 0x114 DUP2 PUSH3 0x1A4 JUMP JUMPDEST SWAP3 SWAP2 POP POP JUMP JUMPDEST PUSH1 0x0 DUP1 PUSH1 0x0 PUSH1 0x60 DUP5 DUP7 SUB SLT ISZERO PUSH3 0x130 JUMPI PUSH1 0x0 DUP1 REVERT JUMPDEST PUSH1 0x0 PUSH3 0x140 DUP7 DUP3 DUP8 ADD PUSH3 0x103 JUMP JUMPDEST SWAP4 POP POP PUSH1 0x20 PUSH3 0x153 DUP7 DUP3 DUP8 ADD PUSH3 0x103 JUMP JUMPDEST SWAP3 POP POP PUSH1 0x40 PUSH3 0x166 DUP7 DUP3 DUP8 ADD PUSH3 0x103 JUMP JUMPDEST SWAP2 POP POP SWAP3 POP SWAP3 POP SWAP3 JUMP JUMPDEST PUSH1 0x0 PUSH3 0x17D DUP3 PUSH3 0x184 JUMP JUMPDEST SWAP1 POP SWAP2 SWAP1 POP JUMP JUMPDEST PUSH1 0x0 PUSH20 0xFFFFFFFFFFFFFFFFFFFFFFFFFFFFFFFFFFFFFFFF DUP3 AND SWAP1 POP SWAP2 SWAP1 POP JUMP JUMPDEST PUSH3 0x1AF DUP2 PUSH3 0x170 JUMP JUMPDEST DUP2 EQ PUSH3 0x1BB JUMPI PUSH1 0x0 DUP1 REVERT JUMPDEST POP JUMP JUMPDEST PUSH2 0x1EB6 DUP1 PUSH3 0x1CE PUSH1 0x0 CODECOPY PUSH1 0x0 RETURN INVALID PUSH1 0x80 PUSH1 0x40 MSTORE CALLVALUE DUP1 ISZERO PUSH2 0x10 JUMPI PUSH1 0x0 DUP1 REVERT JUMPDEST POP PUSH1 0x4 CALLDATASIZE LT PUSH2 0x41 JUMPI PUSH1 0x0 CALLDATALOAD PUSH1 0xE0 SHR DUP1 PUSH4 0x62CCDD27 EQ PUSH2 0x46 JUMPI DUP1 PUSH4 0x7BBB6678 EQ PUSH2 0x62 JUMPI DUP1 PUSH4 0xE5348DBC EQ PUSH2 0x7E JUMPI JUMPDEST PUSH1 0x0 DUP1 REVERT JUMPDEST PUSH2 0x60 PUSH1 0x4 DUP1 CALLDATASIZE SUB DUP2 ADD SWAP1 PUSH2 0x5B SWAP2 SWAP1 PUSH2 0x10FA JUMP JUMPDEST PUSH2 0x9A JUMP JUMPDEST STOP JUMPDEST PUSH2 0x7C PUSH1 0x4 DUP1 CALLDATASIZE SUB DUP2 ADD SWAP1 PUSH2 0x77 SWAP2 SWAP1 PUSH2 0x1069 JUMP JUMPDEST PUSH2 0x426 JUMP JUMPDEST STOP JUMPDEST PUSH2 0x98 PUSH1 0x4 DUP1 CALLDATASIZE SUB DUP2 ADD SWAP1 PUSH2 0x93 SWAP2 SWAP1 PUSH2 0x118B JUMP JUMPDEST PUSH2 0x7C2 JUMP JUMPDEST STOP JUMPDEST DUP1 PUSH1 0x2 PUSH1 0x4 DUP2 LT PUSH2 0xD4 JUMPI PUSH32 0x4E487B7100000000000000000000000000000000000000000000000000000000 PUSH1 0x0 MSTORE PUSH1 0x32 PUSH1 0x4 MSTORE PUSH1 0x24 PUSH1 0x0 REVERT JUMPDEST PUSH1 0x20 MUL ADD MLOAD DUP6 PUSH1 0x40 MLOAD PUSH1 0x20 ADD PUSH2 0xEA SWAP2 SWAP1 PUSH2 0x16A2 JUMP JUMPDEST PUSH1 0x40 MLOAD PUSH1 0x20 DUP2 DUP4 SUB SUB DUP2 MSTORE SWAP1 PUSH1 0x40 MSTORE DUP1 MLOAD SWAP1 PUSH1 0x20 ADD KECCAK256 PUSH1 0x0 SHR EQ PUSH2 0x143 JUMPI PUSH1 0x40 MLOAD PUSH32 0x8C379A000000000000000000000000000000000000000000000000000000000 DUP2 MSTORE PUSH1 0x4 ADD PUSH2 0x13A SWAP1 PUSH2 0x1845 JUMP JUMPDEST PUSH1 0x40 MLOAD DUP1 SWAP2 SUB SWAP1 REVERT JUMPDEST PUSH1 0x5 PUSH1 0x0 SWAP1 SLOAD SWAP1 PUSH2 0x100 EXP SWAP1 DIV PUSH20 0xFFFFFFFFFFFFFFFFFFFFFFFFFFFFFFFFFFFFFFFF AND PUSH20 0xFFFFFFFFFFFFFFFFFFFFFFFFFFFFFFFFFFFFFFFF AND PUSH4 0x5FE8C13B DUP6 DUP6 DUP6 DUP6 PUSH1 0x40 MLOAD DUP6 PUSH4 0xFFFFFFFF AND PUSH1 0xE0 SHL DUP2 MSTORE PUSH1 0x4 ADD PUSH2 0x1A4 SWAP5 SWAP4 SWAP3 SWAP2 SWAP1 PUSH2 0x175E JUMP JUMPDEST PUSH1 0x20 PUSH1 0x40 MLOAD DUP1 DUP4 SUB DUP2 DUP7 DUP1 EXTCODESIZE ISZERO DUP1 ISZERO PUSH2 0x1BC JUMPI PUSH1 0x0 DUP1 REVERT JUMPDEST POP GAS STATICCALL ISZERO DUP1 ISZERO PUSH2 0x1D0 JUMPI RETURNDATASIZE PUSH1 0x0 DUP1 RETURNDATACOPY RETURNDATASIZE PUSH1 0x0 REVERT JUMPDEST POP POP POP POP PUSH1 0x40 MLOAD RETURNDATASIZE PUSH1 0x1F NOT PUSH1 0x1F DUP3 ADD AND DUP3 ADD DUP1 PUSH1 0x40 MSTORE POP DUP2 ADD SWAP1 PUSH2 0x1F4 SWAP2 SWAP1 PUSH2 0x1040 JUMP JUMPDEST PUSH2 0x233 JUMPI PUSH1 0x40 MLOAD PUSH32 0x8C379A000000000000000000000000000000000000000000000000000000000 DUP2 MSTORE PUSH1 0x4 ADD PUSH2 0x22A SWAP1 PUSH2 0x1825 JUMP JUMPDEST PUSH1 0x40 MLOAD DUP1 SWAP2 SUB SWAP1 REVERT JUMPDEST TIMESTAMP DUP6 PUSH1 0x40 MLOAD PUSH2 0x242 SWAP2 SWAP1 PUSH2 0x16A2 JUMP JUMPDEST PUSH1 0x40 MLOAD DUP1 SWAP2 SUB SWAP1 KECCAK256 PUSH1 0x2 PUSH1 0x0 DUP5 PUSH1 0x3 PUSH1 0x4 DUP2 LT PUSH2 0x288 JUMPI PUSH32 0x4E487B7100000000000000000000000000000000000000000000000000000000 PUSH1 0x0 MSTORE PUSH1 0x32 PUSH1 0x4 MSTORE PUSH1 0x24 PUSH1 0x0 REVERT JUMPDEST PUSH1 0x20 MUL ADD MLOAD DUP2 MSTORE PUSH1 0x20 ADD SWAP1 DUP2 MSTORE PUSH1 0x20 ADD PUSH1 0x0 KECCAK256 PUSH1 0x40 MLOAD PUSH2 0x2A8 SWAP2 SWAP1 PUSH2 0x16B9 JUMP JUMPDEST PUSH1 0x40 MLOAD DUP1 SWAP2 SUB SWAP1 KECCAK256 PUSH32 0xB077A2B990B47347A1FECB48750A0632F01F6A47702079E95BF12E46F053B2B4 DUP5 PUSH1 0x0 PUSH1 0x4 DUP2 LT PUSH2 0x30B JUMPI PUSH32 0x4E487B7100000000000000000000000000000000000000000000000000000000 PUSH1 0x0 MSTORE PUSH1 0x32 PUSH1 0x4 MSTORE PUSH1 0x24 PUSH1 0x0 REVERT JUMPDEST PUSH1 0x20 MUL ADD MLOAD PUSH1 0x40 MLOAD PUSH2 0x31D SWAP2 SWAP1 PUSH2 0x1885 JUMP JUMPDEST PUSH1 0x40 MLOAD DUP1 SWAP2 SUB SWAP1 LOG4 PUSH1 0x3 PUSH1 0x2 PUSH1 0x0 DUP4 PUSH1 0x3 PUSH1 0x4 DUP2 LT PUSH2 0x365 JUMPI PUSH32 0x4E487B7100000000000000000000000000000000000000000000000000000000 PUSH1 0x0 MSTORE PUSH1 0x32 PUSH1 0x4 MSTORE PUSH1 0x24 PUSH1 0x0 REVERT JUMPDEST PUSH1 0x20 MUL ADD MLOAD DUP2 MSTORE PUSH1 0x20 ADD SWAP1 DUP2 MSTORE PUSH1 0x20 ADD PUSH1 0x0 KECCAK256 PUSH1 0x40 MLOAD PUSH2 0x385 SWAP2 SWAP1 PUSH2 0x16B9 JUMP JUMPDEST SWAP1 DUP2 MSTORE PUSH1 0x20 ADD PUSH1 0x40 MLOAD DUP1 SWAP2 SUB SWAP1 KECCAK256 PUSH1 0x3 ADD PUSH1 0x0 DUP3 PUSH1 0x0 PUSH1 0x4 DUP2 LT PUSH2 0x3D2 JUMPI PUSH32 0x4E487B7100000000000000000000000000000000000000000000000000000000 PUSH1 0x0 MSTORE PUSH1 0x32 PUSH1 0x4 MSTORE PUSH1 0x24 PUSH1 0x0 REVERT JUMPDEST PUSH1 0x20 MUL ADD MLOAD DUP2 MSTORE PUSH1 0x20 ADD SWAP1 DUP2 MSTORE PUSH1 0x20 ADD PUSH1 0x0 KECCAK256 DUP6 SWAP1 DUP1 PUSH1 0x1 DUP2 SLOAD ADD DUP1 DUP3 SSTORE DUP1 SWAP2 POP POP PUSH1 0x1 SWAP1 SUB SWAP1 PUSH1 0x0 MSTORE PUSH1 0x20 PUSH1 0x0 KECCAK256 ADD PUSH1 0x0 SWAP1 SWAP2 SWAP1 SWAP2 SWAP1 SWAP2 POP SWAP1 DUP1 MLOAD SWAP1 PUSH1 0x20 ADD SWAP1 PUSH2 0x41E SWAP3 SWAP2 SWAP1 PUSH2 0xBC3 JUMP JUMPDEST POP POP POP POP POP POP JUMP JUMPDEST PUSH1 0x1 PUSH1 0x0 DUP3 PUSH1 0x1 PUSH1 0x3 DUP2 LT PUSH2 0x464 JUMPI PUSH32 0x4E487B7100000000000000000000000000000000000000000000000000000000 PUSH1 0x0 MSTORE PUSH1 0x32 PUSH1 0x4 MSTORE PUSH1 0x24 PUSH1 0x0 REVERT JUMPDEST PUSH1 0x20 MUL ADD MLOAD DUP2 MSTORE PUSH1 0x20 ADD SWAP1 DUP2 MSTORE PUSH1 0x20 ADD PUSH1 0x0 KECCAK256 PUSH1 0x0 SWAP1 SLOAD SWAP1 PUSH2 0x100 EXP SWAP1 DIV PUSH1 0xFF AND PUSH2 0x4C4 JUMPI PUSH1 0x40 MLOAD PUSH32 0x8C379A000000000000000000000000000000000000000000000000000000000 DUP2 MSTORE PUSH1 0x4 ADD PUSH2 0x4BB SWAP1 PUSH2 0x17C5 JUMP JUMPDEST PUSH1 0x40 MLOAD DUP1 SWAP2 SUB SWAP1 REVERT JUMPDEST PUSH1 0x4 PUSH1 0x0 SWAP1 SLOAD SWAP1 PUSH2 0x100 EXP SWAP1 DIV PUSH20 0xFFFFFFFFFFFFFFFFFFFFFFFFFFFFFFFFFFFFFFFF AND PUSH20 0xFFFFFFFFFFFFFFFFFFFFFFFFFFFFFFFFFFFFFFFF AND PUSH4 0x11479FEA DUP6 DUP6 DUP6 DUP6 PUSH1 0x40 MLOAD DUP6 PUSH4 0xFFFFFFFF AND PUSH1 0xE0 SHL DUP2 MSTORE PUSH1 0x4 ADD PUSH2 0x525 SWAP5 SWAP4 SWAP3 SWAP2 SWAP1 PUSH2 0x1717 JUMP JUMPDEST PUSH1 0x20 PUSH1 0x40 MLOAD DUP1 DUP4 SUB DUP2 DUP7 DUP1 EXTCODESIZE ISZERO DUP1 ISZERO PUSH2 0x53D JUMPI PUSH1 0x0 DUP1 REVERT JUMPDEST POP GAS STATICCALL ISZERO DUP1 ISZERO PUSH2 0x551 JUMPI RETURNDATASIZE PUSH1 0x0 DUP1 RETURNDATACOPY RETURNDATASIZE PUSH1 0x0 REVERT JUMPDEST POP POP POP POP PUSH1 0x40 MLOAD RETURNDATASIZE PUSH1 0x1F NOT PUSH1 0x1F DUP3 ADD AND DUP3 ADD DUP1 PUSH1 0x40 MSTORE POP DUP2 ADD SWAP1 PUSH2 0x575 SWAP2 SWAP1 PUSH2 0x1040 JUMP JUMPDEST PUSH2 0x5B4 JUMPI PUSH1 0x40 MLOAD PUSH32 0x8C379A000000000000000000000000000000000000000000000000000000000 DUP2 MSTORE PUSH1 0x4 ADD PUSH2 0x5AB SWAP1 PUSH2 0x1805 JUMP JUMPDEST PUSH1 0x40 MLOAD DUP1 SWAP2 SUB SWAP1 REVERT JUMPDEST PUSH1 0x0 PUSH1 0x2 PUSH1 0x0 DUP4 PUSH1 0x1 PUSH1 0x3 DUP2 LT PUSH2 0x5F4 JUMPI PUSH32 0x4E487B7100000000000000000000000000000000000000000000000000000000 PUSH1 0x0 MSTORE PUSH1 0x32 PUSH1 0x4 MSTORE PUSH1 0x24 PUSH1 0x0 REVERT JUMPDEST PUSH1 0x20 MUL ADD MLOAD DUP2 MSTORE PUSH1 0x20 ADD SWAP1 DUP2 MSTORE PUSH1 0x20 ADD PUSH1 0x0 KECCAK256 DUP1 SLOAD PUSH2 0x612 SWAP1 PUSH2 0x1BC9 JUMP JUMPDEST DUP1 PUSH1 0x1F ADD PUSH1 0x20 DUP1 SWAP2 DIV MUL PUSH1 0x20 ADD PUSH1 0x40 MLOAD SWAP1 DUP2 ADD PUSH1 0x40 MSTORE DUP1 SWAP3 SWAP2 SWAP1 DUP2 DUP2 MSTORE PUSH1 0x20 ADD DUP3 DUP1 SLOAD PUSH2 0x63E SWAP1 PUSH2 0x1BC9 JUMP JUMPDEST DUP1 ISZERO PUSH2 0x68B JUMPI DUP1 PUSH1 0x1F LT PUSH2 0x660 JUMPI PUSH2 0x100 DUP1 DUP4 SLOAD DIV MUL DUP4 MSTORE SWAP2 PUSH1 0x20 ADD SWAP2 PUSH2 0x68B JUMP JUMPDEST DUP3 ADD SWAP2 SWAP1 PUSH1 0x0 MSTORE PUSH1 0x20 PUSH1 0x0 KECCAK256 SWAP1 JUMPDEST DUP2 SLOAD DUP2 MSTORE SWAP1 PUSH1 0x1 ADD SWAP1 PUSH1 0x20 ADD DUP1 DUP4 GT PUSH2 0x66E JUMPI DUP3 SWAP1 SUB PUSH1 0x1F AND DUP3 ADD SWAP2 JUMPDEST POP POP POP POP POP SWAP1 POP TIMESTAMP DUP7 PUSH1 0x40 MLOAD PUSH2 0x6A1 SWAP2 SWAP1 PUSH2 0x16A2 JUMP JUMPDEST PUSH1 0x40 MLOAD DUP1 SWAP2 SUB SWAP1 KECCAK256 DUP3 PUSH1 0x40 MLOAD PUSH2 0x6B7 SWAP2 SWAP1 PUSH2 0x16A2 JUMP JUMPDEST PUSH1 0x40 MLOAD DUP1 SWAP2 SUB SWAP1 KECCAK256 PUSH32 0x7F4FD4E6B3A67D74F7618F0AF66A42BAFF73E86818611CB295D4F9E95ED87FB2 DUP6 PUSH1 0x0 PUSH1 0x3 DUP2 LT PUSH2 0x71A JUMPI PUSH32 0x4E487B7100000000000000000000000000000000000000000000000000000000 PUSH1 0x0 MSTORE PUSH1 0x32 PUSH1 0x4 MSTORE PUSH1 0x24 PUSH1 0x0 REVERT JUMPDEST PUSH1 0x20 MUL ADD MLOAD PUSH1 0x40 MLOAD PUSH2 0x72C SWAP2 SWAP1 PUSH2 0x1885 JUMP JUMPDEST PUSH1 0x40 MLOAD DUP1 SWAP2 SUB SWAP1 LOG4 PUSH1 0x3 DUP2 PUSH1 0x40 MLOAD PUSH2 0x744 SWAP2 SWAP1 PUSH2 0x16A2 JUMP JUMPDEST SWAP1 DUP2 MSTORE PUSH1 0x20 ADD PUSH1 0x40 MLOAD DUP1 SWAP2 SUB SWAP1 KECCAK256 PUSH1 0x1 ADD DUP3 PUSH1 0x0 PUSH1 0x3 DUP2 LT PUSH2 0x78F JUMPI PUSH32 0x4E487B7100000000000000000000000000000000000000000000000000000000 PUSH1 0x0 MSTORE PUSH1 0x32 PUSH1 0x4 MSTORE PUSH1 0x24 PUSH1 0x0 REVERT JUMPDEST PUSH1 0x20 MUL ADD MLOAD SWAP1 DUP1 PUSH1 0x1 DUP2 SLOAD ADD DUP1 DUP3 SSTORE DUP1 SWAP2 POP POP PUSH1 0x1 SWAP1 SUB SWAP1 PUSH1 0x0 MSTORE PUSH1 0x20 PUSH1 0x0 KECCAK256 ADD PUSH1 0x0 SWAP1 SWAP2 SWAP1 SWAP2 SWAP1 SWAP2 POP SSTORE POP POP POP POP POP POP JUMP JUMPDEST PUSH1 0x0 DUP7 PUSH1 0x40 MLOAD PUSH2 0x7D2 SWAP2 SWAP1 PUSH2 0x16A2 JUMP JUMPDEST SWAP1 DUP2 MSTORE PUSH1 0x20 ADD PUSH1 0x40 MLOAD DUP1 SWAP2 SUB SWAP1 KECCAK256 PUSH1 0x0 SWAP1 SLOAD SWAP1 PUSH2 0x100 EXP SWAP1 DIV PUSH1 0xFF AND ISZERO PUSH2 0x82E JUMPI PUSH1 0x40 MLOAD PUSH32 0x8C379A000000000000000000000000000000000000000000000000000000000 DUP2 MSTORE PUSH1 0x4 ADD PUSH2 0x825 SWAP1 PUSH2 0x17A5 JUMP JUMPDEST PUSH1 0x40 MLOAD DUP1 SWAP2 SUB SWAP1 REVERT JUMPDEST PUSH1 0x1 PUSH1 0x0 DUP3 PUSH1 0x0 PUSH1 0x1 DUP2 LT PUSH2 0x86C JUMPI PUSH32 0x4E487B7100000000000000000000000000000000000000000000000000000000 PUSH1 0x0 MSTORE PUSH1 0x32 PUSH1 0x4 MSTORE PUSH1 0x24 PUSH1 0x0 REVERT JUMPDEST PUSH1 0x20 MUL ADD MLOAD DUP2 MSTORE PUSH1 0x20 ADD SWAP1 DUP2 MSTORE PUSH1 0x20 ADD PUSH1 0x0 KECCAK256 PUSH1 0x0 SWAP1 SLOAD SWAP1 PUSH2 0x100 EXP SWAP1 DIV PUSH1 0xFF AND ISZERO PUSH2 0x8CD JUMPI PUSH1 0x40 MLOAD PUSH32 0x8C379A000000000000000000000000000000000000000000000000000000000 DUP2 MSTORE PUSH1 0x4 ADD PUSH2 0x8C4 SWAP1 PUSH2 0x17E5 JUMP JUMPDEST PUSH1 0x40 MLOAD DUP1 SWAP2 SUB SWAP1 REVERT JUMPDEST PUSH1 0x6 PUSH1 0x0 SWAP1 SLOAD SWAP1 PUSH2 0x100 EXP SWAP1 DIV PUSH20 0xFFFFFFFFFFFFFFFFFFFFFFFFFFFFFFFFFFFFFFFF AND PUSH20 0xFFFFFFFFFFFFFFFFFFFFFFFFFFFFFFFFFFFFFFFF AND PUSH4 0x43753B4D DUP6 DUP6 DUP6 DUP6 PUSH1 0x40 MLOAD DUP6 PUSH4 0xFFFFFFFF AND PUSH1 0xE0 SHL DUP2 MSTORE PUSH1 0x4 ADD PUSH2 0x92E SWAP5 SWAP4 SWAP3 SWAP2 SWAP1 PUSH2 0x16D0 JUMP JUMPDEST PUSH1 0x20 PUSH1 0x40 MLOAD DUP1 DUP4 SUB DUP2 DUP7 DUP1 EXTCODESIZE ISZERO DUP1 ISZERO PUSH2 0x946 JUMPI PUSH1 0x0 DUP1 REVERT JUMPDEST POP GAS STATICCALL ISZERO DUP1 ISZERO PUSH2 0x95A JUMPI RETURNDATASIZE PUSH1 0x0 DUP1 RETURNDATACOPY RETURNDATASIZE PUSH1 0x0 REVERT JUMPDEST POP POP POP POP PUSH1 0x40 MLOAD RETURNDATASIZE PUSH1 0x1F NOT PUSH1 0x1F DUP3 ADD AND DUP3 ADD DUP1 PUSH1 0x40 MSTORE POP DUP2 ADD SWAP1 PUSH2 0x97E SWAP2 SWAP1 PUSH2 0x1040 JUMP JUMPDEST PUSH2 0x9BD JUMPI PUSH1 0x40 MLOAD PUSH32 0x8C379A000000000000000000000000000000000000000000000000000000000 DUP2 MSTORE PUSH1 0x4 ADD PUSH2 0x9B4 SWAP1 PUSH2 0x1865 JUMP JUMPDEST PUSH1 0x40 MLOAD DUP1 SWAP2 SUB SWAP1 REVERT JUMPDEST TIMESTAMP DUP7 PUSH1 0x40 MLOAD PUSH2 0x9CC SWAP2 SWAP1 PUSH2 0x16A2 JUMP JUMPDEST PUSH1 0x40 MLOAD DUP1 SWAP2 SUB SWAP1 KECCAK256 PUSH32 0x9D5DD5D55261E9D3049A8482E4ABCBE9D22F1F658A9898F5D6DDB4CCC99086BD DUP4 PUSH1 0x0 PUSH1 0x1 DUP2 LT PUSH2 0xA2F JUMPI PUSH32 0x4E487B7100000000000000000000000000000000000000000000000000000000 PUSH1 0x0 MSTORE PUSH1 0x32 PUSH1 0x4 MSTORE PUSH1 0x24 PUSH1 0x0 REVERT JUMPDEST PUSH1 0x20 MUL ADD MLOAD DUP9 PUSH1 0x40 MLOAD PUSH2 0xA43 SWAP3 SWAP2 SWAP1 PUSH2 0x18A0 JUMP JUMPDEST PUSH1 0x40 MLOAD DUP1 SWAP2 SUB SWAP1 LOG3 PUSH1 0x1 PUSH1 0x0 DUP8 PUSH1 0x40 MLOAD PUSH2 0xA5D SWAP2 SWAP1 PUSH2 0x16A2 JUMP JUMPDEST SWAP1 DUP2 MSTORE PUSH1 0x20 ADD PUSH1 0x40 MLOAD DUP1 SWAP2 SUB SWAP1 KECCAK256 PUSH1 0x0 PUSH2 0x100 EXP DUP2 SLOAD DUP2 PUSH1 0xFF MUL NOT AND SWAP1 DUP4 ISZERO ISZERO MUL OR SWAP1 SSTORE POP PUSH1 0x1 DUP1 PUSH1 0x0 DUP4 PUSH1 0x0 PUSH1 0x1 DUP2 LT PUSH2 0xAC1 JUMPI PUSH32 0x4E487B7100000000000000000000000000000000000000000000000000000000 PUSH1 0x0 MSTORE PUSH1 0x32 PUSH1 0x4 MSTORE PUSH1 0x24 PUSH1 0x0 REVERT JUMPDEST PUSH1 0x20 MUL ADD MLOAD DUP2 MSTORE PUSH1 0x20 ADD SWAP1 DUP2 MSTORE PUSH1 0x20 ADD PUSH1 0x0 KECCAK256 PUSH1 0x0 PUSH2 0x100 EXP DUP2 SLOAD DUP2 PUSH1 0xFF MUL NOT AND SWAP1 DUP4 ISZERO ISZERO MUL OR SWAP1 SSTORE POP DUP6 PUSH1 0x2 PUSH1 0x0 DUP4 PUSH1 0x0 PUSH1 0x1 DUP2 LT PUSH2 0xB2A JUMPI PUSH32 0x4E487B7100000000000000000000000000000000000000000000000000000000 PUSH1 0x0 MSTORE PUSH1 0x32 PUSH1 0x4 MSTORE PUSH1 0x24 PUSH1 0x0 REVERT JUMPDEST PUSH1 0x20 MUL ADD MLOAD DUP2 MSTORE PUSH1 0x20 ADD SWAP1 DUP2 MSTORE PUSH1 0x20 ADD PUSH1 0x0 KECCAK256 SWAP1 DUP1 MLOAD SWAP1 PUSH1 0x20 ADD SWAP1 PUSH2 0xB50 SWAP3 SWAP2 SWAP1 PUSH2 0xBC3 JUMP JUMPDEST POP PUSH1 0x0 PUSH1 0x3 DUP8 PUSH1 0x40 MLOAD PUSH2 0xB63 SWAP2 SWAP1 PUSH2 0x16A2 JUMP JUMPDEST SWAP1 DUP2 MSTORE PUSH1 0x20 ADD PUSH1 0x40 MLOAD DUP1 SWAP2 SUB SWAP1 KECCAK256 SWAP1 POP DUP2 PUSH1 0x0 PUSH1 0x1 DUP2 LT PUSH2 0xBAD JUMPI PUSH32 0x4E487B7100000000000000000000000000000000000000000000000000000000 PUSH1 0x0 MSTORE PUSH1 0x32 PUSH1 0x4 MSTORE PUSH1 0x24 PUSH1 0x0 REVERT JUMPDEST PUSH1 0x20 MUL ADD MLOAD DUP2 PUSH1 0x0 ADD DUP2 SWAP1 SSTORE POP POP POP POP POP POP POP POP JUMP JUMPDEST DUP3 DUP1 SLOAD PUSH2 0xBCF SWAP1 PUSH2 0x1BC9 JUMP JUMPDEST SWAP1 PUSH1 0x0 MSTORE PUSH1 0x20 PUSH1 0x0 KECCAK256 SWAP1 PUSH1 0x1F ADD PUSH1 0x20 SWAP1 DIV DUP2 ADD SWAP3 DUP3 PUSH2 0xBF1 JUMPI PUSH1 0x0 DUP6 SSTORE PUSH2 0xC38 JUMP JUMPDEST DUP3 PUSH1 0x1F LT PUSH2 0xC0A JUMPI DUP1 MLOAD PUSH1 0xFF NOT AND DUP4 DUP1 ADD OR DUP6 SSTORE PUSH2 0xC38 JUMP JUMPDEST DUP3 DUP1 ADD PUSH1 0x1 ADD DUP6 SSTORE DUP3 ISZERO PUSH2 0xC38 JUMPI SWAP2 DUP3 ADD JUMPDEST DUP3 DUP2 GT ISZERO PUSH2 0xC37 JUMPI DUP3 MLOAD DUP3 SSTORE SWAP2 PUSH1 0x20 ADD SWAP2 SWAP1 PUSH1 0x1 ADD SWAP1 PUSH2 0xC1C JUMP JUMPDEST JUMPDEST POP SWAP1 POP PUSH2 0xC45 SWAP2 SWAP1 PUSH2 0xC49 JUMP JUMPDEST POP SWAP1 JUMP JUMPDEST JUMPDEST DUP1 DUP3 GT ISZERO PUSH2 0xC62 JUMPI PUSH1 0x0 DUP2 PUSH1 0x0 SWAP1 SSTORE POP PUSH1 0x1 ADD PUSH2 0xC4A JUMP JUMPDEST POP SWAP1 JUMP JUMPDEST PUSH1 0x0 PUSH2 0xC79 PUSH2 0xC74 DUP5 PUSH2 0x18F5 JUMP JUMPDEST PUSH2 0x18D0 JUMP JUMPDEST SWAP1 POP DUP1 DUP3 DUP6 PUSH1 0x40 DUP7 MUL DUP3 ADD GT ISZERO PUSH2 0xC8F JUMPI PUSH1 0x0 DUP1 REVERT JUMPDEST PUSH1 0x0 JUMPDEST DUP6 DUP2 LT ISZERO PUSH2 0xCBF JUMPI DUP2 PUSH2 0xCA5 DUP9 DUP3 PUSH2 0xF4D JUMP JUMPDEST DUP5 MSTORE PUSH1 0x20 DUP5 ADD SWAP4 POP PUSH1 0x40 DUP4 ADD SWAP3 POP POP PUSH1 0x1 DUP2 ADD SWAP1 POP PUSH2 0xC92 JUMP JUMPDEST POP POP POP SWAP4 SWAP3 POP POP POP JUMP JUMPDEST PUSH1 0x0 PUSH2 0xCDC PUSH2 0xCD7 DUP5 PUSH2 0x191B JUMP JUMPDEST PUSH2 0x18D0 JUMP JUMPDEST SWAP1 POP DUP1 DUP3 DUP6 PUSH1 0x20 DUP7 MUL DUP3 ADD GT ISZERO PUSH2 0xCF2 JUMPI PUSH1 0x0 DUP1 REVERT JUMPDEST PUSH1 0x0 JUMPDEST DUP6 DUP2 LT ISZERO PUSH2 0xD22 JUMPI DUP2 PUSH2 0xD08 DUP9 DUP3 PUSH2 0x102B JUMP JUMPDEST DUP5 MSTORE PUSH1 0x20 DUP5 ADD SWAP4 POP PUSH1 0x20 DUP4 ADD SWAP3 POP POP PUSH1 0x1 DUP2 ADD SWAP1 POP PUSH2 0xCF5 JUMP JUMPDEST POP POP POP SWAP4 SWAP3 POP POP POP JUMP JUMPDEST PUSH1 0x0 PUSH2 0xD3F PUSH2 0xD3A DUP5 PUSH2 0x1941 JUMP JUMPDEST PUSH2 0x18D0 JUMP JUMPDEST SWAP1 POP DUP1 DUP3 DUP6 PUSH1 0x20 DUP7 MUL DUP3 ADD GT ISZERO PUSH2 0xD55 JUMPI PUSH1 0x0 DUP1 REVERT JUMPDEST PUSH1 0x0 JUMPDEST DUP6 DUP2 LT ISZERO PUSH2 0xD85 JUMPI DUP2 PUSH2 0xD6B DUP9 DUP3 PUSH2 0x102B JUMP JUMPDEST DUP5 MSTORE PUSH1 0x20 DUP5 ADD SWAP4 POP PUSH1 0x20 DUP4 ADD SWAP3 POP POP PUSH1 0x1 DUP2 ADD SWAP1 POP PUSH2 0xD58 JUMP JUMPDEST POP POP POP SWAP4 SWAP3 POP POP POP JUMP JUMPDEST PUSH1 0x0 PUSH2 0xDA2 PUSH2 0xD9D DUP5 PUSH2 0x1967 JUMP JUMPDEST PUSH2 0x18D0 JUMP JUMPDEST SWAP1 POP DUP1 DUP3 DUP6 PUSH1 0x20 DUP7 MUL DUP3 ADD GT ISZERO PUSH2 0xDB8 JUMPI PUSH1 0x0 DUP1 REVERT JUMPDEST PUSH1 0x0 JUMPDEST DUP6 DUP2 LT ISZERO PUSH2 0xDE8 JUMPI DUP2 PUSH2 0xDCE DUP9 DUP3 PUSH2 0x102B JUMP JUMPDEST DUP5 MSTORE PUSH1 0x20 DUP5 ADD SWAP4 POP PUSH1 0x20 DUP4 ADD SWAP3 POP POP PUSH1 0x1 DUP2 ADD SWAP1 POP PUSH2 0xDBB JUMP JUMPDEST POP POP POP SWAP4 SWAP3 POP POP POP JUMP JUMPDEST PUSH1 0x0 PUSH2 0xE05 PUSH2 0xE00 DUP5 PUSH2 0x198D JUMP JUMPDEST PUSH2 0x18D0 JUMP JUMPDEST SWAP1 POP DUP1 DUP3 DUP6 PUSH1 0x20 DUP7 MUL DUP3 ADD GT ISZERO PUSH2 0xE1B JUMPI PUSH1 0x0 DUP1 REVERT JUMPDEST PUSH1 0x0 JUMPDEST DUP6 DUP2 LT ISZERO PUSH2 0xE4B JUMPI DUP2 PUSH2 0xE31 DUP9 DUP3 PUSH2 0x102B JUMP JUMPDEST DUP5 MSTORE PUSH1 0x20 DUP5 ADD SWAP4 POP PUSH1 0x20 DUP4 ADD SWAP3 POP POP PUSH1 0x1 DUP2 ADD SWAP1 POP PUSH2 0xE1E JUMP JUMPDEST POP POP POP SWAP4 SWAP3 POP POP POP JUMP JUMPDEST PUSH1 0x0 PUSH2 0xE68 PUSH2 0xE63 DUP5 PUSH2 0x19B3 JUMP JUMPDEST PUSH2 0x18D0 JUMP JUMPDEST SWAP1 POP DUP1 DUP4 DUP3 MSTORE PUSH1 0x20 DUP3 ADD SWAP1 POP DUP3 DUP6 PUSH1 0x20 DUP7 MUL DUP3 ADD GT ISZERO PUSH2 0xE87 JUMPI PUSH1 0x0 DUP1 REVERT JUMPDEST PUSH1 0x0 JUMPDEST DUP6 DUP2 LT ISZERO PUSH2 0xEB7 JUMPI DUP2 PUSH2 0xE9D DUP9 DUP3 PUSH2 0x102B JUMP JUMPDEST DUP5 MSTORE PUSH1 0x20 DUP5 ADD SWAP4 POP PUSH1 0x20 DUP4 ADD SWAP3 POP POP PUSH1 0x1 DUP2 ADD SWAP1 POP PUSH2 0xE8A JUMP JUMPDEST POP POP POP SWAP4 SWAP3 POP POP POP JUMP JUMPDEST PUSH1 0x0 PUSH2 0xED4 PUSH2 0xECF DUP5 PUSH2 0x19DF JUMP JUMPDEST PUSH2 0x18D0 JUMP JUMPDEST SWAP1 POP DUP3 DUP2 MSTORE PUSH1 0x20 DUP2 ADD DUP5 DUP5 DUP5 ADD GT ISZERO PUSH2 0xEEC JUMPI PUSH1 0x0 DUP1 REVERT JUMPDEST PUSH2 0xEF7 DUP5 DUP3 DUP6 PUSH2 0x1B87 JUMP JUMPDEST POP SWAP4 SWAP3 POP POP POP JUMP JUMPDEST PUSH1 0x0 DUP3 PUSH1 0x1F DUP4 ADD SLT PUSH2 0xF10 JUMPI PUSH1 0x0 DUP1 REVERT JUMPDEST PUSH1 0x2 PUSH2 0xF1D DUP5 DUP3 DUP6 PUSH2 0xC66 JUMP JUMPDEST SWAP2 POP POP SWAP3 SWAP2 POP POP JUMP JUMPDEST PUSH1 0x0 DUP3 PUSH1 0x1F DUP4 ADD SLT PUSH2 0xF37 JUMPI PUSH1 0x0 DUP1 REVERT JUMPDEST PUSH1 0x1 PUSH2 0xF44 DUP5 DUP3 DUP6 PUSH2 0xCC9 JUMP JUMPDEST SWAP2 POP POP SWAP3 SWAP2 POP POP JUMP JUMPDEST PUSH1 0x0 DUP3 PUSH1 0x1F DUP4 ADD SLT PUSH2 0xF5E JUMPI PUSH1 0x0 DUP1 REVERT JUMPDEST PUSH1 0x2 PUSH2 0xF6B DUP5 DUP3 DUP6 PUSH2 0xD2C JUMP JUMPDEST SWAP2 POP POP SWAP3 SWAP2 POP POP JUMP JUMPDEST PUSH1 0x0 DUP3 PUSH1 0x1F DUP4 ADD SLT PUSH2 0xF85 JUMPI PUSH1 0x0 DUP1 REVERT JUMPDEST PUSH1 0x3 PUSH2 0xF92 DUP5 DUP3 DUP6 PUSH2 0xD8F JUMP JUMPDEST SWAP2 POP POP SWAP3 SWAP2 POP POP JUMP JUMPDEST PUSH1 0x0 DUP3 PUSH1 0x1F DUP4 ADD SLT PUSH2 0xFAC JUMPI PUSH1 0x0 DUP1 REVERT JUMPDEST PUSH1 0x4 PUSH2 0xFB9 DUP5 DUP3 DUP6 PUSH2 0xDF2 JUMP JUMPDEST SWAP2 POP POP SWAP3 SWAP2 POP POP JUMP JUMPDEST PUSH1 0x0 DUP3 PUSH1 0x1F DUP4 ADD SLT PUSH2 0xFD3 JUMPI PUSH1 0x0 DUP1 REVERT JUMPDEST DUP2 CALLDATALOAD PUSH2 0xFE3 DUP5 DUP3 PUSH1 0x20 DUP7 ADD PUSH2 0xE55 JUMP JUMPDEST SWAP2 POP POP SWAP3 SWAP2 POP POP JUMP JUMPDEST PUSH1 0x0 DUP2 MLOAD SWAP1 POP PUSH2 0xFFB DUP2 PUSH2 0x1E52 JUMP JUMPDEST SWAP3 SWAP2 POP POP JUMP JUMPDEST PUSH1 0x0 DUP3 PUSH1 0x1F DUP4 ADD SLT PUSH2 0x1012 JUMPI PUSH1 0x0 DUP1 REVERT JUMPDEST DUP2 CALLDATALOAD PUSH2 0x1022 DUP5 DUP3 PUSH1 0x20 DUP7 ADD PUSH2 0xEC1 JUMP JUMPDEST SWAP2 POP POP SWAP3 SWAP2 POP POP JUMP JUMPDEST PUSH1 0x0 DUP2 CALLDATALOAD SWAP1 POP PUSH2 0x103A DUP2 PUSH2 0x1E69 JUMP JUMPDEST SWAP3 SWAP2 POP POP JUMP JUMPDEST PUSH1 0x0 PUSH1 0x20 DUP3 DUP5 SUB SLT ISZERO PUSH2 0x1052 JUMPI PUSH1 0x0 DUP1 REVERT JUMPDEST PUSH1 0x0 PUSH2 0x1060 DUP5 DUP3 DUP6 ADD PUSH2 0xFEC JUMP JUMPDEST SWAP2 POP POP SWAP3 SWAP2 POP POP JUMP JUMPDEST PUSH1 0x0 DUP1 PUSH1 0x0 DUP1 PUSH1 0x0 PUSH2 0x180 DUP7 DUP9 SUB SLT ISZERO PUSH2 0x1082 JUMPI PUSH1 0x0 DUP1 REVERT JUMPDEST PUSH1 0x0 DUP7 ADD CALLDATALOAD PUSH8 0xFFFFFFFFFFFFFFFF DUP2 GT ISZERO PUSH2 0x109C JUMPI PUSH1 0x0 DUP1 REVERT JUMPDEST PUSH2 0x10A8 DUP9 DUP3 DUP10 ADD PUSH2 0x1001 JUMP JUMPDEST SWAP6 POP POP PUSH1 0x20 PUSH2 0x10B9 DUP9 DUP3 DUP10 ADD PUSH2 0xF4D JUMP JUMPDEST SWAP5 POP POP PUSH1 0x60 PUSH2 0x10CA DUP9 DUP3 DUP10 ADD PUSH2 0xEFF JUMP JUMPDEST SWAP4 POP POP PUSH1 0xE0 PUSH2 0x10DB DUP9 DUP3 DUP10 ADD PUSH2 0xF4D JUMP JUMPDEST SWAP3 POP POP PUSH2 0x120 PUSH2 0x10ED DUP9 DUP3 DUP10 ADD PUSH2 0xF74 JUMP JUMPDEST SWAP2 POP POP SWAP3 SWAP6 POP SWAP3 SWAP6 SWAP1 SWAP4 POP JUMP JUMPDEST PUSH1 0x0 DUP1 PUSH1 0x0 DUP1 PUSH1 0x0 PUSH2 0x1A0 DUP7 DUP9 SUB SLT ISZERO PUSH2 0x1113 JUMPI PUSH1 0x0 DUP1 REVERT JUMPDEST PUSH1 0x0 DUP7 ADD CALLDATALOAD PUSH8 0xFFFFFFFFFFFFFFFF DUP2 GT ISZERO PUSH2 0x112D JUMPI PUSH1 0x0 DUP1 REVERT JUMPDEST PUSH2 0x1139 DUP9 DUP3 DUP10 ADD PUSH2 0x1001 JUMP JUMPDEST SWAP6 POP POP PUSH1 0x20 PUSH2 0x114A DUP9 DUP3 DUP10 ADD PUSH2 0xF4D JUMP JUMPDEST SWAP5 POP POP PUSH1 0x60 PUSH2 0x115B DUP9 DUP3 DUP10 ADD PUSH2 0xEFF JUMP JUMPDEST SWAP4 POP POP PUSH1 0xE0 PUSH2 0x116C DUP9 DUP3 DUP10 ADD PUSH2 0xF4D JUMP JUMPDEST SWAP3 POP POP PUSH2 0x120 PUSH2 0x117E DUP9 DUP3 DUP10 ADD PUSH2 0xF9B JUMP JUMPDEST SWAP2 POP POP SWAP3 SWAP6 POP SWAP3 SWAP6 SWAP1 SWAP4 POP JUMP JUMPDEST PUSH1 0x0 DUP1 PUSH1 0x0 DUP1 PUSH1 0x0 DUP1 PUSH2 0x160 DUP8 DUP10 SUB SLT ISZERO PUSH2 0x11A5 JUMPI PUSH1 0x0 DUP1 REVERT JUMPDEST PUSH1 0x0 DUP8 ADD CALLDATALOAD PUSH8 0xFFFFFFFFFFFFFFFF DUP2 GT ISZERO PUSH2 0x11BF JUMPI PUSH1 0x0 DUP1 REVERT JUMPDEST PUSH2 0x11CB DUP10 DUP3 DUP11 ADD PUSH2 0x1001 JUMP JUMPDEST SWAP7 POP POP PUSH1 0x20 DUP8 ADD CALLDATALOAD PUSH8 0xFFFFFFFFFFFFFFFF DUP2 GT ISZERO PUSH2 0x11E8 JUMPI PUSH1 0x0 DUP1 REVERT JUMPDEST PUSH2 0x11F4 DUP10 DUP3 DUP11 ADD PUSH2 0xFC2 JUMP JUMPDEST SWAP6 POP POP PUSH1 0x40 PUSH2 0x1205 DUP10 DUP3 DUP11 ADD PUSH2 0xF4D JUMP JUMPDEST SWAP5 POP POP PUSH1 0x80 PUSH2 0x1216 DUP10 DUP3 DUP11 ADD PUSH2 0xEFF JUMP JUMPDEST SWAP4 POP POP PUSH2 0x100 PUSH2 0x1228 DUP10 DUP3 DUP11 ADD PUSH2 0xF4D JUMP JUMPDEST SWAP3 POP POP PUSH2 0x140 PUSH2 0x123A DUP10 DUP3 DUP11 ADD PUSH2 0xF26 JUMP JUMPDEST SWAP2 POP POP SWAP3 SWAP6 POP SWAP3 SWAP6 POP SWAP3 SWAP6 JUMP JUMPDEST PUSH1 0x0 PUSH2 0x1253 DUP4 DUP4 PUSH2 0x1325 JUMP JUMPDEST PUSH1 0x40 DUP4 ADD SWAP1 POP SWAP3 SWAP2 POP POP JUMP JUMPDEST PUSH1 0x0 PUSH2 0x126B DUP4 DUP4 PUSH2 0x1684 JUMP JUMPDEST PUSH1 0x20 DUP4 ADD SWAP1 POP SWAP3 SWAP2 POP POP JUMP JUMPDEST PUSH2 0x1280 DUP2 PUSH2 0x1A67 JUMP JUMPDEST PUSH2 0x128A DUP2 DUP5 PUSH2 0x1B02 JUMP JUMPDEST SWAP3 POP PUSH2 0x1295 DUP3 PUSH2 0x1A10 JUMP JUMPDEST DUP1 PUSH1 0x0 JUMPDEST DUP4 DUP2 LT ISZERO PUSH2 0x12C6 JUMPI DUP2 MLOAD PUSH2 0x12AD DUP8 DUP3 PUSH2 0x1247 JUMP JUMPDEST SWAP7 POP PUSH2 0x12B8 DUP4 PUSH2 0x1AB4 JUMP JUMPDEST SWAP3 POP POP PUSH1 0x1 DUP2 ADD SWAP1 POP PUSH2 0x1299 JUMP JUMPDEST POP POP POP POP POP POP JUMP JUMPDEST PUSH2 0x12D7 DUP2 PUSH2 0x1A72 JUMP JUMPDEST PUSH2 0x12E1 DUP2 DUP5 PUSH2 0x1B0D JUMP JUMPDEST SWAP3 POP PUSH2 0x12EC DUP3 PUSH2 0x1A1A JUMP JUMPDEST DUP1 PUSH1 0x0 JUMPDEST DUP4 DUP2 LT ISZERO PUSH2 0x131D JUMPI DUP2 MLOAD PUSH2 0x1304 DUP8 DUP3 PUSH2 0x125F JUMP JUMPDEST SWAP7 POP PUSH2 0x130F DUP4 PUSH2 0x1AC1 JUMP JUMPDEST SWAP3 POP POP PUSH1 0x1 DUP2 ADD SWAP1 POP PUSH2 0x12F0 JUMP JUMPDEST POP POP POP POP POP POP JUMP JUMPDEST PUSH2 0x132E DUP2 PUSH2 0x1A7D JUMP JUMPDEST PUSH2 0x1338 DUP2 DUP5 PUSH2 0x1B18 JUMP JUMPDEST SWAP3 POP PUSH2 0x1343 DUP3 PUSH2 0x1A24 JUMP JUMPDEST DUP1 PUSH1 0x0 JUMPDEST DUP4 DUP2 LT ISZERO PUSH2 0x1374 JUMPI DUP2 MLOAD PUSH2 0x135B DUP8 DUP3 PUSH2 0x125F JUMP JUMPDEST SWAP7 POP PUSH2 0x1366 DUP4 PUSH2 0x1ACE JUMP JUMPDEST SWAP3 POP POP PUSH1 0x1 DUP2 ADD SWAP1 POP PUSH2 0x1347 JUMP JUMPDEST POP POP POP POP POP POP JUMP JUMPDEST PUSH2 0x1385 DUP2 PUSH2 0x1A7D JUMP JUMPDEST PUSH2 0x138F DUP2 DUP5 PUSH2 0x1B23 JUMP JUMPDEST SWAP3 POP PUSH2 0x139A DUP3 PUSH2 0x1A24 JUMP JUMPDEST DUP1 PUSH1 0x0 JUMPDEST DUP4 DUP2 LT ISZERO PUSH2 0x13CB JUMPI DUP2 MLOAD PUSH2 0x13B2 DUP8 DUP3 PUSH2 0x125F JUMP JUMPDEST SWAP7 POP PUSH2 0x13BD DUP4 PUSH2 0x1ACE JUMP JUMPDEST SWAP3 POP POP PUSH1 0x1 DUP2 ADD SWAP1 POP PUSH2 0x139E JUMP JUMPDEST POP POP POP POP POP POP JUMP JUMPDEST PUSH2 0x13DC DUP2 PUSH2 0x1A88 JUMP JUMPDEST PUSH2 0x13E6 DUP2 DUP5 PUSH2 0x1B2E JUMP JUMPDEST SWAP3 POP PUSH2 0x13F1 DUP3 PUSH2 0x1A2E JUMP JUMPDEST DUP1 PUSH1 0x0 JUMPDEST DUP4 DUP2 LT ISZERO PUSH2 0x1422 JUMPI DUP2 MLOAD PUSH2 0x1409 DUP8 DUP3 PUSH2 0x125F JUMP JUMPDEST SWAP7 POP PUSH2 0x1414 DUP4 PUSH2 0x1ADB JUMP JUMPDEST SWAP3 POP POP PUSH1 0x1 DUP2 ADD SWAP1 POP PUSH2 0x13F5 JUMP JUMPDEST POP POP POP POP POP POP JUMP JUMPDEST PUSH2 0x1433 DUP2 PUSH2 0x1A93 JUMP JUMPDEST PUSH2 0x143D DUP2 DUP5 PUSH2 0x1B39 JUMP JUMPDEST SWAP3 POP PUSH2 0x1448 DUP3 PUSH2 0x1A38 JUMP JUMPDEST DUP1 PUSH1 0x0 JUMPDEST DUP4 DUP2 LT ISZERO PUSH2 0x1479 JUMPI DUP2 MLOAD PUSH2 0x1460 DUP8 DUP3 PUSH2 0x125F JUMP JUMPDEST SWAP7 POP PUSH2 0x146B DUP4 PUSH2 0x1AE8 JUMP JUMPDEST SWAP3 POP POP PUSH1 0x1 DUP2 ADD SWAP1 POP PUSH2 0x144C JUMP JUMPDEST POP POP POP POP POP POP JUMP JUMPDEST PUSH1 0x0 PUSH2 0x148C DUP3 PUSH2 0x1A9E JUMP JUMPDEST PUSH2 0x1496 DUP2 DUP6 PUSH2 0x1B44 JUMP JUMPDEST SWAP4 POP PUSH2 0x14A1 DUP4 PUSH2 0x1A42 JUMP JUMPDEST DUP1 PUSH1 0x0 JUMPDEST DUP4 DUP2 LT ISZERO PUSH2 0x14D2 JUMPI DUP2 MLOAD PUSH2 0x14B9 DUP9 DUP3 PUSH2 0x125F JUMP JUMPDEST SWAP8 POP PUSH2 0x14C4 DUP4 PUSH2 0x1AF5 JUMP JUMPDEST SWAP3 POP POP PUSH1 0x1 DUP2 ADD SWAP1 POP PUSH2 0x14A5 JUMP JUMPDEST POP DUP6 SWAP4 POP POP POP POP SWAP3 SWAP2 POP POP JUMP JUMPDEST PUSH1 0x0 PUSH2 0x14EA DUP3 PUSH2 0x1AA9 JUMP JUMPDEST PUSH2 0x14F4 DUP2 DUP6 PUSH2 0x1B66 JUMP JUMPDEST SWAP4 POP PUSH2 0x1504 DUP2 DUP6 PUSH1 0x20 DUP7 ADD PUSH2 0x1B96 JUMP JUMPDEST DUP1 DUP5 ADD SWAP2 POP POP SWAP3 SWAP2 POP POP JUMP JUMPDEST PUSH1 0x0 DUP2 SLOAD PUSH2 0x151D DUP2 PUSH2 0x1BC9 JUMP JUMPDEST PUSH2 0x1527 DUP2 DUP7 PUSH2 0x1B66 JUMP JUMPDEST SWAP5 POP PUSH1 0x1 DUP3 AND PUSH1 0x0 DUP2 EQ PUSH2 0x1542 JUMPI PUSH1 0x1 DUP2 EQ PUSH2 0x1553 JUMPI PUSH2 0x1586 JUMP JUMPDEST PUSH1 0xFF NOT DUP4 AND DUP7 MSTORE DUP2 DUP7 ADD SWAP4 POP PUSH2 0x1586 JUMP JUMPDEST PUSH2 0x155C DUP6 PUSH2 0x1A52 JUMP JUMPDEST PUSH1 0x0 JUMPDEST DUP4 DUP2 LT ISZERO PUSH2 0x157E JUMPI DUP2 SLOAD DUP2 DUP10 ADD MSTORE PUSH1 0x1 DUP3 ADD SWAP2 POP PUSH1 0x20 DUP2 ADD SWAP1 POP PUSH2 0x155F JUMP JUMPDEST DUP4 DUP9 ADD SWAP6 POP POP POP JUMPDEST POP POP POP SWAP3 SWAP2 POP POP JUMP JUMPDEST PUSH1 0x0 PUSH2 0x159C PUSH1 0x1A DUP4 PUSH2 0x1B55 JUMP JUMPDEST SWAP2 POP PUSH2 0x15A7 DUP3 PUSH2 0x1C9B JUMP JUMPDEST PUSH1 0x20 DUP3 ADD SWAP1 POP SWAP2 SWAP1 POP JUMP JUMPDEST PUSH1 0x0 PUSH2 0x15BF PUSH1 0x23 DUP4 PUSH2 0x1B55 JUMP JUMPDEST SWAP2 POP PUSH2 0x15CA DUP3 PUSH2 0x1CC4 JUMP JUMPDEST PUSH1 0x40 DUP3 ADD SWAP1 POP SWAP2 SWAP1 POP JUMP JUMPDEST PUSH1 0x0 PUSH2 0x15E2 PUSH1 0x4C DUP4 PUSH2 0x1B55 JUMP JUMPDEST SWAP2 POP PUSH2 0x15ED DUP3 PUSH2 0x1D13 JUMP JUMPDEST PUSH1 0x60 DUP3 ADD SWAP1 POP SWAP2 SWAP1 POP JUMP JUMPDEST PUSH1 0x0 PUSH2 0x1605 PUSH1 0x15 DUP4 PUSH2 0x1B55 JUMP JUMPDEST SWAP2 POP PUSH2 0x1610 DUP3 PUSH2 0x1D88 JUMP JUMPDEST PUSH1 0x20 DUP3 ADD SWAP1 POP SWAP2 SWAP1 POP JUMP JUMPDEST PUSH1 0x0 PUSH2 0x1628 PUSH1 0x14 DUP4 PUSH2 0x1B55 JUMP JUMPDEST SWAP2 POP PUSH2 0x1633 DUP3 PUSH2 0x1DB1 JUMP JUMPDEST PUSH1 0x20 DUP3 ADD SWAP1 POP SWAP2 SWAP1 POP JUMP JUMPDEST PUSH1 0x0 PUSH2 0x164B PUSH1 0x3C DUP4 PUSH2 0x1B55 JUMP JUMPDEST SWAP2 POP PUSH2 0x1656 DUP3 PUSH2 0x1DDA JUMP JUMPDEST PUSH1 0x40 DUP3 ADD SWAP1 POP SWAP2 SWAP1 POP JUMP JUMPDEST PUSH1 0x0 PUSH2 0x166E PUSH1 0x12 DUP4 PUSH2 0x1B55 JUMP JUMPDEST SWAP2 POP PUSH2 0x1679 DUP3 PUSH2 0x1E29 JUMP JUMPDEST PUSH1 0x20 DUP3 ADD SWAP1 POP SWAP2 SWAP1 POP JUMP JUMPDEST PUSH2 0x168D DUP2 PUSH2 0x1B7D JUMP JUMPDEST DUP3 MSTORE POP POP JUMP JUMPDEST PUSH2 0x169C DUP2 PUSH2 0x1B7D JUMP JUMPDEST DUP3 MSTORE POP POP JUMP JUMPDEST PUSH1 0x0 PUSH2 0x16AE DUP3 DUP5 PUSH2 0x14DF JUMP JUMPDEST SWAP2 POP DUP2 SWAP1 POP SWAP3 SWAP2 POP POP JUMP JUMPDEST PUSH1 0x0 PUSH2 0x16C5 DUP3 DUP5 PUSH2 0x1510 JUMP JUMPDEST SWAP2 POP DUP2 SWAP1 POP SWAP3 SWAP2 POP POP JUMP JUMPDEST PUSH1 0x0 PUSH2 0x120 DUP3 ADD SWAP1 POP PUSH2 0x16E6 PUSH1 0x0 DUP4 ADD DUP8 PUSH2 0x137C JUMP JUMPDEST PUSH2 0x16F3 PUSH1 0x40 DUP4 ADD DUP7 PUSH2 0x1277 JUMP JUMPDEST PUSH2 0x1700 PUSH1 0xC0 DUP4 ADD DUP6 PUSH2 0x137C JUMP JUMPDEST PUSH2 0x170E PUSH2 0x100 DUP4 ADD DUP5 PUSH2 0x12CE JUMP JUMPDEST SWAP6 SWAP5 POP POP POP POP POP JUMP JUMPDEST PUSH1 0x0 PUSH2 0x160 DUP3 ADD SWAP1 POP PUSH2 0x172D PUSH1 0x0 DUP4 ADD DUP8 PUSH2 0x137C JUMP JUMPDEST PUSH2 0x173A PUSH1 0x40 DUP4 ADD DUP7 PUSH2 0x1277 JUMP JUMPDEST PUSH2 0x1747 PUSH1 0xC0 DUP4 ADD DUP6 PUSH2 0x137C JUMP JUMPDEST PUSH2 0x1755 PUSH2 0x100 DUP4 ADD DUP5 PUSH2 0x13D3 JUMP JUMPDEST SWAP6 SWAP5 POP POP POP POP POP JUMP JUMPDEST PUSH1 0x0 PUSH2 0x180 DUP3 ADD SWAP1 POP PUSH2 0x1774 PUSH1 0x0 DUP4 ADD DUP8 PUSH2 0x137C JUMP JUMPDEST PUSH2 0x1781 PUSH1 0x40 DUP4 ADD DUP7 PUSH2 0x1277 JUMP JUMPDEST PUSH2 0x178E PUSH1 0xC0 DUP4 ADD DUP6 PUSH2 0x137C JUMP JUMPDEST PUSH2 0x179C PUSH2 0x100 DUP4 ADD DUP5 PUSH2 0x142A JUMP JUMPDEST SWAP6 SWAP5 POP POP POP POP POP JUMP JUMPDEST PUSH1 0x0 PUSH1 0x20 DUP3 ADD SWAP1 POP DUP2 DUP2 SUB PUSH1 0x0 DUP4 ADD MSTORE PUSH2 0x17BE DUP2 PUSH2 0x158F JUMP JUMPDEST SWAP1 POP SWAP2 SWAP1 POP JUMP JUMPDEST PUSH1 0x0 PUSH1 0x20 DUP3 ADD SWAP1 POP DUP2 DUP2 SUB PUSH1 0x0 DUP4 ADD MSTORE PUSH2 0x17DE DUP2 PUSH2 0x15B2 JUMP JUMPDEST SWAP1 POP SWAP2 SWAP1 POP JUMP JUMPDEST PUSH1 0x0 PUSH1 0x20 DUP3 ADD SWAP1 POP DUP2 DUP2 SUB PUSH1 0x0 DUP4 ADD MSTORE PUSH2 0x17FE DUP2 PUSH2 0x15D5 JUMP JUMPDEST SWAP1 POP SWAP2 SWAP1 POP JUMP JUMPDEST PUSH1 0x0 PUSH1 0x20 DUP3 ADD SWAP1 POP DUP2 DUP2 SUB PUSH1 0x0 DUP4 ADD MSTORE PUSH2 0x181E DUP2 PUSH2 0x15F8 JUMP JUMPDEST SWAP1 POP SWAP2 SWAP1 POP JUMP JUMPDEST PUSH1 0x0 PUSH1 0x20 DUP3 ADD SWAP1 POP DUP2 DUP2 SUB PUSH1 0x0 DUP4 ADD MSTORE PUSH2 0x183E DUP2 PUSH2 0x161B JUMP JUMPDEST SWAP1 POP SWAP2 SWAP1 POP JUMP JUMPDEST PUSH1 0x0 PUSH1 0x20 DUP3 ADD SWAP1 POP DUP2 DUP2 SUB PUSH1 0x0 DUP4 ADD MSTORE PUSH2 0x185E DUP2 PUSH2 0x163E JUMP JUMPDEST SWAP1 POP SWAP2 SWAP1 POP JUMP JUMPDEST PUSH1 0x0 PUSH1 0x20 DUP3 ADD SWAP1 POP DUP2 DUP2 SUB PUSH1 0x0 DUP4 ADD MSTORE PUSH2 0x187E DUP2 PUSH2 0x1661 JUMP JUMPDEST SWAP1 POP SWAP2 SWAP1 POP JUMP JUMPDEST PUSH1 0x0 PUSH1 0x20 DUP3 ADD SWAP1 POP PUSH2 0x189A PUSH1 0x0 DUP4 ADD DUP5 PUSH2 0x1693 JUMP JUMPDEST SWAP3 SWAP2 POP POP JUMP JUMPDEST PUSH1 0x0 PUSH1 0x40 DUP3 ADD SWAP1 POP PUSH2 0x18B5 PUSH1 0x0 DUP4 ADD DUP6 PUSH2 0x1693 JUMP JUMPDEST DUP2 DUP2 SUB PUSH1 0x20 DUP4 ADD MSTORE PUSH2 0x18C7 DUP2 DUP5 PUSH2 0x1481 JUMP JUMPDEST SWAP1 POP SWAP4 SWAP3 POP POP POP JUMP JUMPDEST PUSH1 0x0 PUSH2 0x18DA PUSH2 0x18EB JUMP JUMPDEST SWAP1 POP PUSH2 0x18E6 DUP3 DUP3 PUSH2 0x1BFB JUMP JUMPDEST SWAP2 SWAP1 POP JUMP JUMPDEST PUSH1 0x0 PUSH1 0x40 MLOAD SWAP1 POP SWAP1 JUMP JUMPDEST PUSH1 0x0 PUSH8 0xFFFFFFFFFFFFFFFF DUP3 GT ISZERO PUSH2 0x1910 JUMPI PUSH2 0x190F PUSH2 0x1C5B JUMP JUMPDEST JUMPDEST PUSH1 0x20 DUP3 MUL SWAP1 POP SWAP2 SWAP1 POP JUMP JUMPDEST PUSH1 0x0 PUSH8 0xFFFFFFFFFFFFFFFF DUP3 GT ISZERO PUSH2 0x1936 JUMPI PUSH2 0x1935 PUSH2 0x1C5B JUMP JUMPDEST JUMPDEST PUSH1 0x20 DUP3 MUL SWAP1 POP SWAP2 SWAP1 POP JUMP JUMPDEST PUSH1 0x0 PUSH8 0xFFFFFFFFFFFFFFFF DUP3 GT ISZERO PUSH2 0x195C JUMPI PUSH2 0x195B PUSH2 0x1C5B JUMP JUMPDEST JUMPDEST PUSH1 0x20 DUP3 MUL SWAP1 POP SWAP2 SWAP1 POP JUMP JUMPDEST PUSH1 0x0 PUSH8 0xFFFFFFFFFFFFFFFF DUP3 GT ISZERO PUSH2 0x1982 JUMPI PUSH2 0x1981 PUSH2 0x1C5B JUMP JUMPDEST JUMPDEST PUSH1 0x20 DUP3 MUL SWAP1 POP SWAP2 SWAP1 POP JUMP JUMPDEST PUSH1 0x0 PUSH8 0xFFFFFFFFFFFFFFFF DUP3 GT ISZERO PUSH2 0x19A8 JUMPI PUSH2 0x19A7 PUSH2 0x1C5B JUMP JUMPDEST JUMPDEST PUSH1 0x20 DUP3 MUL SWAP1 POP SWAP2 SWAP1 POP JUMP JUMPDEST PUSH1 0x0 PUSH8 0xFFFFFFFFFFFFFFFF DUP3 GT ISZERO PUSH2 0x19CE JUMPI PUSH2 0x19CD PUSH2 0x1C5B JUMP JUMPDEST JUMPDEST PUSH1 0x20 DUP3 MUL SWAP1 POP PUSH1 0x20 DUP2 ADD SWAP1 POP SWAP2 SWAP1 POP JUMP JUMPDEST PUSH1 0x0 PUSH8 0xFFFFFFFFFFFFFFFF DUP3 GT ISZERO PUSH2 0x19FA JUMPI PUSH2 0x19F9 PUSH2 0x1C5B JUMP JUMPDEST JUMPDEST PUSH2 0x1A03 DUP3 PUSH2 0x1C8A JUMP JUMPDEST SWAP1 POP PUSH1 0x20 DUP2 ADD SWAP1 POP SWAP2 SWAP1 POP JUMP JUMPDEST PUSH1 0x0 DUP2 SWAP1 POP SWAP2 SWAP1 POP JUMP JUMPDEST PUSH1 0x0 DUP2 SWAP1 POP SWAP2 SWAP1 POP JUMP JUMPDEST PUSH1 0x0 DUP2 SWAP1 POP SWAP2 SWAP1 POP JUMP JUMPDEST PUSH1 0x0 DUP2 SWAP1 POP SWAP2 SWAP1 POP JUMP JUMPDEST PUSH1 0x0 DUP2 SWAP1 POP SWAP2 SWAP1 POP JUMP JUMPDEST PUSH1 0x0 DUP2 SWAP1 POP PUSH1 0x20 DUP3 ADD SWAP1 POP SWAP2 SWAP1 POP JUMP JUMPDEST PUSH1 0x0 DUP2 SWAP1 POP DUP2 PUSH1 0x0 MSTORE PUSH1 0x20 PUSH1 0x0 KECCAK256 SWAP1 POP SWAP2 SWAP1 POP JUMP JUMPDEST PUSH1 0x0 PUSH1 0x2 SWAP1 POP SWAP2 SWAP1 POP JUMP JUMPDEST PUSH1 0x0 PUSH1 0x1 SWAP1 POP SWAP2 SWAP1 POP JUMP JUMPDEST PUSH1 0x0 PUSH1 0x2 SWAP1 POP SWAP2 SWAP1 POP JUMP JUMPDEST PUSH1 0x0 PUSH1 0x3 SWAP1 POP SWAP2 SWAP1 POP JUMP JUMPDEST PUSH1 0x0 PUSH1 0x4 SWAP1 POP SWAP2 SWAP1 POP JUMP JUMPDEST PUSH1 0x0 DUP2 MLOAD SWAP1 POP SWAP2 SWAP1 POP JUMP JUMPDEST PUSH1 0x0 DUP2 MLOAD SWAP1 POP SWAP2 SWAP1 POP JUMP JUMPDEST PUSH1 0x0 PUSH1 0x20 DUP3 ADD SWAP1 POP SWAP2 SWAP1 POP JUMP JUMPDEST PUSH1 0x0 PUSH1 0x20 DUP3 ADD SWAP1 POP SWAP2 SWAP1 POP JUMP JUMPDEST PUSH1 0x0 PUSH1 0x20 DUP3 ADD SWAP1 POP SWAP2 SWAP1 POP JUMP JUMPDEST PUSH1 0x0 PUSH1 0x20 DUP3 ADD SWAP1 POP SWAP2 SWAP1 POP JUMP JUMPDEST PUSH1 0x0 PUSH1 0x20 DUP3 ADD SWAP1 POP SWAP2 SWAP1 POP JUMP JUMPDEST PUSH1 0x0 PUSH1 0x20 DUP3 ADD SWAP1 POP SWAP2 SWAP1 POP JUMP JUMPDEST PUSH1 0x0 DUP2 SWAP1 POP SWAP3 SWAP2 POP POP JUMP JUMPDEST PUSH1 0x0 DUP2 SWAP1 POP SWAP3 SWAP2 POP POP JUMP JUMPDEST PUSH1 0x0 DUP2 SWAP1 POP SWAP3 SWAP2 POP POP JUMP JUMPDEST PUSH1 0x0 DUP2 SWAP1 POP SWAP3 SWAP2 POP POP JUMP JUMPDEST PUSH1 0x0 DUP2 SWAP1 POP SWAP3 SWAP2 POP POP JUMP JUMPDEST PUSH1 0x0 DUP2 SWAP1 POP SWAP3 SWAP2 POP POP JUMP JUMPDEST PUSH1 0x0 DUP3 DUP3 MSTORE PUSH1 0x20 DUP3 ADD SWAP1 POP SWAP3 SWAP2 POP POP JUMP JUMPDEST PUSH1 0x0 DUP3 DUP3 MSTORE PUSH1 0x20 DUP3 ADD SWAP1 POP SWAP3 SWAP2 POP POP JUMP JUMPDEST PUSH1 0x0 DUP2 SWAP1 POP SWAP3 SWAP2 POP POP JUMP JUMPDEST PUSH1 0x0 DUP2 ISZERO ISZERO SWAP1 POP SWAP2 SWAP1 POP JUMP JUMPDEST PUSH1 0x0 DUP2 SWAP1 POP SWAP2 SWAP1 POP JUMP JUMPDEST DUP3 DUP2 DUP4 CALLDATACOPY PUSH1 0x0 DUP4 DUP4 ADD MSTORE POP POP POP JUMP JUMPDEST PUSH1 0x0 JUMPDEST DUP4 DUP2 LT ISZERO PUSH2 0x1BB4 JUMPI DUP1 DUP3 ADD MLOAD DUP2 DUP5 ADD MSTORE PUSH1 0x20 DUP2 ADD SWAP1 POP PUSH2 0x1B99 JUMP JUMPDEST DUP4 DUP2 GT ISZERO PUSH2 0x1BC3 JUMPI PUSH1 0x0 DUP5 DUP5 ADD MSTORE JUMPDEST POP POP POP POP JUMP JUMPDEST PUSH1 0x0 PUSH1 0x2 DUP3 DIV SWAP1 POP PUSH1 0x1 DUP3 AND DUP1 PUSH2 0x1BE1 JUMPI PUSH1 0x7F DUP3 AND SWAP2 POP JUMPDEST PUSH1 0x20 DUP3 LT DUP2 EQ ISZERO PUSH2 0x1BF5 JUMPI PUSH2 0x1BF4 PUSH2 0x1C2C JUMP JUMPDEST JUMPDEST POP SWAP2 SWAP1 POP JUMP JUMPDEST PUSH2 0x1C04 DUP3 PUSH2 0x1C8A JUMP JUMPDEST DUP2 ADD DUP2 DUP2 LT PUSH8 0xFFFFFFFFFFFFFFFF DUP3 GT OR ISZERO PUSH2 0x1C23 JUMPI PUSH2 0x1C22 PUSH2 0x1C5B JUMP JUMPDEST JUMPDEST DUP1 PUSH1 0x40 MSTORE POP POP POP JUMP JUMPDEST PUSH32 0x4E487B7100000000000000000000000000000000000000000000000000000000 PUSH1 0x0 MSTORE PUSH1 0x22 PUSH1 0x4 MSTORE PUSH1 0x24 PUSH1 0x0 REVERT JUMPDEST PUSH32 0x4E487B7100000000000000000000000000000000000000000000000000000000 PUSH1 0x0 MSTORE PUSH1 0x41 PUSH1 0x4 MSTORE PUSH1 0x24 PUSH1 0x0 REVERT JUMPDEST PUSH1 0x0 PUSH1 0x1F NOT PUSH1 0x1F DUP4 ADD AND SWAP1 POP SWAP2 SWAP1 POP JUMP JUMPDEST PUSH32 0x47726F7570204E616D6520416C72656164792045786973747321000000000000 PUSH1 0x0 DUP3 ADD MSTORE POP JUMP JUMPDEST PUSH32 0x5370656369666965642047726F757020526F6F7420446F6573204E6F74204578 PUSH1 0x0 DUP3 ADD MSTORE PUSH32 0x6973740000000000000000000000000000000000000000000000000000000000 PUSH1 0x20 DUP3 ADD MSTORE POP JUMP JUMPDEST PUSH32 0x526F6F7420416C7265616479204578697374732C20692E652E20746865206772 PUSH1 0x0 DUP3 ADD MSTORE PUSH32 0x6F757020796F752061726520747279696E6720746F2063726561746520616C72 PUSH1 0x20 DUP3 ADD MSTORE PUSH32 0x6561647920657869737473210000000000000000000000000000000000000000 PUSH1 0x40 DUP3 ADD MSTORE POP JUMP JUMPDEST PUSH32 0x496E76616C6964204D6573736167652050726F6F660000000000000000000000 PUSH1 0x0 DUP3 ADD MSTORE POP JUMP JUMPDEST PUSH32 0x496E76616C69642052657665616C2050726F6F66000000000000000000000000 PUSH1 0x0 DUP3 ADD MSTORE POP JUMP JUMPDEST PUSH32 0x4D65737361676520737472696E6720646F6573206E6F74206D61746368207468 PUSH1 0x0 DUP3 ADD MSTORE PUSH32 0x65206D6573736167652068617368207573656420696E2070726F6F6600000000 PUSH1 0x20 DUP3 ADD MSTORE POP JUMP JUMPDEST PUSH32 0x496E76616C696420526F6F742050726F6F660000000000000000000000000000 PUSH1 0x0 DUP3 ADD MSTORE POP JUMP JUMPDEST PUSH2 0x1E5B DUP2 PUSH2 0x1B71 JUMP JUMPDEST DUP2 EQ PUSH2 0x1E66 JUMPI PUSH1 0x0 DUP1 REVERT JUMPDEST POP JUMP JUMPDEST PUSH2 0x1E72 DUP2 PUSH2 0x1B7D JUMP JUMPDEST DUP2 EQ PUSH2 0x1E7D JUMPI PUSH1 0x0 DUP1 REVERT JUMPDEST POP JUMP INVALID LOG2 PUSH5 0x6970667358 0x22 SLT KECCAK256 0xAD DUP13 0xB4 SLT 0x5D MUL SELFBALANCE 0xFC 0xEE PUSH14 0xF59F03A496DCCC084FC23EA7B5BF 0x29 0xB4 INVALID 0xF9 MOD PUSH8 0xE5964736F6C6343 STOP ADDMOD DIV STOP CALLER "
        },
        "methodIdentifiers": {
          "createGroup(string,uint256[],uint256[2],uint256[2][2],uint256[2],uint256[1])": "e5348dbc",
          "revealMessage(string,uint256[2],uint256[2][2],uint256[2],uint256[4])": "62ccdd27",
          "sendMessage(string,uint256[2],uint256[2][2],uint256[2],uint256[3])": "7bbb6678"
        }
      }
    }
  }
}