{
  "_format": "hh-sol-artifact-1",
  "contractName": "MessageBoard",
  "sourceName": "contracts/MessageBoard.sol",
  "abi": [
    {
      "inputs": [
        {
          "internalType": "address",
          "name": "_signVerifier",
          "type": "address"
        },
        {
          "internalType": "address",
          "name": "_rootVerifier",
          "type": "address"
        },
        {
          "internalType": "address",
          "name": "_revealVerifier",
          "type": "address"
        },
        {
          "internalType": "address",
          "name": "_registerVerifier",
          "type": "address"
        }
      ],
      "stateMutability": "nonpayable",
      "type": "constructor"
    },
    {
      "anonymous": false,
      "inputs": [
        {
          "indexed": true,
          "internalType": "uint256",
          "name": "root",
          "type": "uint256"
        }
      ],
      "name": "GroupCreated",
      "type": "event"
    },
    {
      "anonymous": false,
      "inputs": [
        {
          "indexed": true,
          "internalType": "uint256",
          "name": "root",
          "type": "uint256"
        },
        {
          "indexed": false,
          "internalType": "uint256",
          "name": "messageAttestation",
          "type": "uint256"
        }
      ],
      "name": "MessageAdded",
      "type": "event"
    },
    {
      "anonymous": false,
      "inputs": [
        {
          "indexed": true,
          "internalType": "uint256",
          "name": "root",
          "type": "uint256"
        },
        {
          "indexed": false,
          "internalType": "uint256",
          "name": "leaf",
          "type": "uint256"
        }
      ],
      "name": "MessageRevealed",
      "type": "event"
    },
    {
      "anonymous": false,
      "inputs": [
        {
          "indexed": true,
          "internalType": "uint256",
          "name": "leaf",
          "type": "uint256"
        }
      ],
      "name": "UserRegistered",
      "type": "event"
    },
    {
      "inputs": [
        {
          "internalType": "string",
          "name": "_groupname",
          "type": "string"
        },
        {
          "internalType": "uint256[]",
          "name": "_users",
          "type": "uint256[]"
        },
        {
          "internalType": "uint256[2]",
          "name": "_a",
          "type": "uint256[2]"
        },
        {
          "internalType": "uint256[2][2]",
          "name": "_b",
          "type": "uint256[2][2]"
        },
        {
          "internalType": "uint256[2]",
          "name": "_c",
          "type": "uint256[2]"
        },
        {
          "internalType": "uint256[1]",
          "name": "_input",
          "type": "uint256[1]"
        }
      ],
      "name": "createGroup",
      "outputs": [],
      "stateMutability": "nonpayable",
      "type": "function"
    },
    {
      "inputs": [
        {
          "internalType": "uint256",
          "name": "_root",
          "type": "uint256"
        }
      ],
      "name": "getGroupFullInfo",
      "outputs": [
        {
          "components": [
            {
              "internalType": "string",
              "name": "text",
              "type": "string"
            },
            {
              "internalType": "bool",
              "name": "revealed",
              "type": "bool"
            },
            {
              "internalType": "uint256",
              "name": "leaf",
              "type": "uint256"
            },
            {
              "internalType": "uint256",
              "name": "msgAttestation",
              "type": "uint256"
            }
          ],
          "internalType": "struct CoreStorage.Message[]",
          "name": "",
          "type": "tuple[]"
        }
      ],
      "stateMutability": "view",
      "type": "function"
    },
    {
      "inputs": [
        {
          "internalType": "uint256",
          "name": "_root",
          "type": "uint256"
        }
      ],
      "name": "getGroupName",
      "outputs": [
        {
          "internalType": "string",
          "name": "",
          "type": "string"
        }
      ],
      "stateMutability": "view",
      "type": "function"
    },
    {
      "inputs": [],
      "name": "getGroupRoots",
      "outputs": [
        {
          "internalType": "uint256[]",
          "name": "",
          "type": "uint256[]"
        }
      ],
      "stateMutability": "view",
      "type": "function"
    },
    {
      "inputs": [
        {
          "internalType": "uint256",
          "name": "_root",
          "type": "uint256"
        }
      ],
      "name": "getGroupUsers",
      "outputs": [
        {
          "internalType": "uint256[]",
          "name": "",
          "type": "uint256[]"
        }
      ],
      "stateMutability": "view",
      "type": "function"
    },
    {
      "inputs": [],
      "name": "getUsers",
      "outputs": [
        {
          "internalType": "uint256[]",
          "name": "",
          "type": "uint256[]"
        }
      ],
      "stateMutability": "view",
      "type": "function"
    },
    {
      "inputs": [],
      "name": "getUsersLength",
      "outputs": [
        {
          "internalType": "uint256",
          "name": "",
          "type": "uint256"
        }
      ],
      "stateMutability": "view",
      "type": "function"
    },
    {
      "inputs": [
        {
          "internalType": "uint256",
          "name": "",
          "type": "uint256"
        },
        {
          "internalType": "uint256",
          "name": "",
          "type": "uint256"
        }
      ],
      "name": "groups",
      "outputs": [
        {
          "internalType": "uint256",
          "name": "",
          "type": "uint256"
        }
      ],
      "stateMutability": "view",
      "type": "function"
    },
    {
      "inputs": [
        {
          "internalType": "uint256",
          "name": "_pubKey",
          "type": "uint256"
        }
      ],
      "name": "isUser",
      "outputs": [
        {
          "internalType": "bool",
          "name": "",
          "type": "bool"
        }
      ],
      "stateMutability": "view",
      "type": "function"
    },
    {
      "inputs": [
        {
          "internalType": "uint256[2]",
          "name": "_a",
          "type": "uint256[2]"
        },
        {
          "internalType": "uint256[2][2]",
          "name": "_b",
          "type": "uint256[2][2]"
        },
        {
          "internalType": "uint256[2]",
          "name": "_c",
          "type": "uint256[2]"
        },
        {
          "internalType": "uint256[1]",
          "name": "_input",
          "type": "uint256[1]"
        }
      ],
      "name": "loginUser",
      "outputs": [
        {
          "internalType": "bool",
          "name": "",
          "type": "bool"
        }
      ],
      "stateMutability": "view",
      "type": "function"
    },
    {
      "inputs": [
        {
          "internalType": "uint256",
          "name": "",
          "type": "uint256"
        },
        {
          "internalType": "uint256",
          "name": "",
          "type": "uint256"
        }
      ],
      "name": "messages",
      "outputs": [
        {
          "internalType": "string",
          "name": "text",
          "type": "string"
        },
        {
          "internalType": "bool",
          "name": "revealed",
          "type": "bool"
        },
        {
          "internalType": "uint256",
          "name": "leaf",
          "type": "uint256"
        },
        {
          "internalType": "uint256",
          "name": "msgAttestation",
          "type": "uint256"
        }
      ],
      "stateMutability": "view",
      "type": "function"
    },
    {
      "inputs": [
        {
          "internalType": "uint256",
          "name": "",
          "type": "uint256"
        }
      ],
      "name": "msgAttestations",
      "outputs": [
        {
          "internalType": "bool",
          "name": "",
          "type": "bool"
        }
      ],
      "stateMutability": "view",
      "type": "function"
    },
    {
      "inputs": [
        {
          "internalType": "uint256[2]",
          "name": "_a",
          "type": "uint256[2]"
        },
        {
          "internalType": "uint256[2][2]",
          "name": "_b",
          "type": "uint256[2][2]"
        },
        {
          "internalType": "uint256[2]",
          "name": "_c",
          "type": "uint256[2]"
        },
        {
          "internalType": "uint256[1]",
          "name": "_input",
          "type": "uint256[1]"
        }
      ],
      "name": "registerUser",
      "outputs": [],
      "stateMutability": "nonpayable",
      "type": "function"
    },
    {
      "inputs": [
        {
          "internalType": "uint256",
          "name": "",
          "type": "uint256"
        }
      ],
      "name": "registeredUsers",
      "outputs": [
        {
          "internalType": "bool",
          "name": "",
          "type": "bool"
        }
      ],
      "stateMutability": "view",
      "type": "function"
    },
    {
      "inputs": [
        {
          "internalType": "uint256[2]",
          "name": "_a",
          "type": "uint256[2]"
        },
        {
          "internalType": "uint256[2][2]",
          "name": "_b",
          "type": "uint256[2][2]"
        },
        {
          "internalType": "uint256[2]",
          "name": "_c",
          "type": "uint256[2]"
        },
        {
          "internalType": "uint256[4]",
          "name": "_input",
          "type": "uint256[4]"
        }
      ],
      "name": "revealMessage",
      "outputs": [],
      "stateMutability": "nonpayable",
      "type": "function"
    },
    {
      "inputs": [
        {
          "internalType": "uint256",
          "name": "",
          "type": "uint256"
        }
      ],
      "name": "roots",
      "outputs": [
        {
          "internalType": "uint256",
          "name": "",
          "type": "uint256"
        }
      ],
      "stateMutability": "view",
      "type": "function"
    },
    {
      "inputs": [
        {
          "internalType": "string",
          "name": "_message",
          "type": "string"
        },
        {
          "internalType": "uint256[2]",
          "name": "_a",
          "type": "uint256[2]"
        },
        {
          "internalType": "uint256[2][2]",
          "name": "_b",
          "type": "uint256[2][2]"
        },
        {
          "internalType": "uint256[2]",
          "name": "_c",
          "type": "uint256[2]"
        },
        {
          "internalType": "uint256[4]",
          "name": "_input",
          "type": "uint256[4]"
        }
      ],
      "name": "sendMessage",
      "outputs": [],
      "stateMutability": "nonpayable",
      "type": "function"
    },
    {
      "inputs": [
        {
          "internalType": "uint256",
          "name": "_pubKey",
          "type": "uint256"
        },
        {
          "internalType": "uint256",
          "name": "_root",
          "type": "uint256"
        }
      ],
      "name": "userInGroup",
      "outputs": [
        {
          "internalType": "bool",
          "name": "",
          "type": "bool"
        }
      ],
      "stateMutability": "view",
      "type": "function"
    },
    {
      "inputs": [
        {
          "internalType": "uint256",
          "name": "",
          "type": "uint256"
        }
      ],
      "name": "users",
      "outputs": [
        {
          "internalType": "uint256",
          "name": "",
          "type": "uint256"
        }
      ],
      "stateMutability": "view",
      "type": "function"
    }
  ],
  "bytecode": "0x60806040527f30644e72e131a029b85045b68181585d2833e84879b9709143e1f593f0000001600d553480156200003557600080fd5b50604051620038c3380380620038c383398181016040528101906200005b919062000180565b83600960006101000a81548173ffffffffffffffffffffffffffffffffffffffff021916908373ffffffffffffffffffffffffffffffffffffffff16021790555081600a60006101000a81548173ffffffffffffffffffffffffffffffffffffffff021916908373ffffffffffffffffffffffffffffffffffffffff16021790555082600b60006101000a81548173ffffffffffffffffffffffffffffffffffffffff021916908373ffffffffffffffffffffffffffffffffffffffff16021790555080600c60006101000a81548173ffffffffffffffffffffffffffffffffffffffff021916908373ffffffffffffffffffffffffffffffffffffffff160217905550505050506200023a565b6000815190506200017a8162000220565b92915050565b600080600080608085870312156200019757600080fd5b6000620001a78782880162000169565b9450506020620001ba8782880162000169565b9350506040620001cd8782880162000169565b9250506060620001e08782880162000169565b91505092959194509250565b6000620001f98262000200565b9050919050565b600073ffffffffffffffffffffffffffffffffffffffff82169050919050565b6200022b81620001ec565b81146200023757600080fd5b50565b613679806200024a6000396000f3fe608060405234801561001057600080fd5b50600436106101205760003560e01c806375f05c65116100ad578063c2b40ae411610071578063c2b40ae41461036a578063dc772f701461039a578063e5348dbc146103ca578063f3ffd38f146103e6578063f8a5ace91461041657610120565b806375f05c6514610289578063835c2e55146102a75780638f272112146102d75780639348935a1461030a578063be0cc32d1461033a57610120565b806329a6ca32116100f457806329a6ca32146101ab578063365b98b2146101db5780634ae855cf1461020b578063595b1a3e1461023b5780637259e0f81461025957610120565b8062ce8e3e146101255780630c164c361461014357806312777b611461015f57806318a9cc1b1461017b575b600080fd5b61012d610432565b60405161013a9190612bff565b60405180910390f35b61015d6004803603810190610158919061227a565b61048a565b005b610179600480360381019061017491906122df565b610761565b005b610195600480360381019061019091906124ba565b610b63565b6040516101a29190612c21565b60405180910390f35b6101c560048036038101906101c091906124ba565b610b8d565b6040516101d29190612c3c565b60405180910390f35b6101f560048036038101906101f091906124ba565b610c92565b6040516102029190612e8a565b60405180910390f35b610225600480360381019061022091906124e3565b610cb6565b6040516102329190612e8a565b60405180910390f35b610243610ce7565b6040516102509190612e8a565b60405180910390f35b610273600480360381019061026e91906124ba565b610cf4565b6040516102809190612c21565b60405180910390f35b610291610d14565b60405161029e9190612bff565b60405180910390f35b6102c160048036038101906102bc919061227a565b610d6c565b6040516102ce9190612c21565b60405180910390f35b6102f160048036038101906102ec91906124e3565b610f0f565b6040516103019493929190612c5e565b60405180910390f35b610324600480360381019061031f91906124e3565b610ff1565b6040516103319190612c21565b60405180910390f35b610354600480360381019061034f91906124ba565b611095565b6040516103619190612c21565b60405180910390f35b610384600480360381019061037f91906124ba565b6110b5565b6040516103919190612e8a565b60405180910390f35b6103b460048036038101906103af91906124ba565b6110d9565b6040516103c19190612bff565b60405180910390f35b6103e460048036038101906103df91906123fe565b6111a4565b005b61040060048036038101906103fb91906124ba565b611705565b60405161040d9190612b4f565b60405180910390f35b610430600480360381019061042b919061236d565b611898565b005b6060600680548060200260200160405190810160405280929190818152602001828054801561048057602002820191906000526020600020905b81548152602001906001019080831161046c575b5050505050905090565b6000151560036000836000600181106104cc577f4e487b7100000000000000000000000000000000000000000000000000000000600052603260045260246000fd5b6020020151815260200190815260200160002060009054906101000a900460ff1615151461052f576040517f08c379a000000000000000000000000000000000000000000000000000000000815260040161052690612d0a565b60405180910390fd5b600c60009054906101000a900473ffffffffffffffffffffffffffffffffffffffff1673ffffffffffffffffffffffffffffffffffffffff166343753b4d858585856040518563ffffffff1660e01b81526004016105909493929190612b71565b60206040518083038186803b1580156105a857600080fd5b505afa1580156105bc573d6000803e3d6000fd5b505050506040513d601f19601f820116820180604052508101906105e09190612344565b61061f576040517f08c379a000000000000000000000000000000000000000000000000000000000815260040161061690612d2a565b60405180910390fd5b6001600360008360006001811061065f577f4e487b7100000000000000000000000000000000000000000000000000000000600052603260045260246000fd5b6020020151815260200190815260200160002060006101000a81548160ff0219169083151502179055506006816000600181106106c5577f4e487b7100000000000000000000000000000000000000000000000000000000600052603260045260246000fd5b602002015190806001815401808255809150506001900390600052602060002001600090919091909150558060006001811061072a577f4e487b7100000000000000000000000000000000000000000000000000000000600052603260045260246000fd5b60200201517f6b1da47e6cb6a4952c75fff4300f06caf20aa8269a4a398f315562926c5bed3960405160405180910390a250505050565b600a60009054906101000a900473ffffffffffffffffffffffffffffffffffffffff1673ffffffffffffffffffffffffffffffffffffffff16635fe8c13b858585856040518563ffffffff1660e01b81526004016107c29493929190612bb8565b60206040518083038186803b1580156107da57600080fd5b505afa1580156107ee573d6000803e3d6000fd5b505050506040513d601f19601f820116820180604052508101906108129190612344565b610851576040517f08c379a000000000000000000000000000000000000000000000000000000000815260040161084890612dea565b60405180910390fd5b8060006004811061088b577f4e487b7100000000000000000000000000000000000000000000000000000000600052603260045260246000fd5b60200201517f393637e45ada8d7dd2318c598ef4a7fd5a7131b99dd29960ff1d0c725adafe8c826001600481106108eb577f4e487b7100000000000000000000000000000000000000000000000000000000600052603260045260246000fd5b60200201516040516108fd9190612e8a565b60405180910390a260005b6007600083600060048110610946577f4e487b7100000000000000000000000000000000000000000000000000000000600052603260045260246000fd5b6020020151815260200190815260200160002080549050811015610b5c578160036004811061099e577f4e487b7100000000000000000000000000000000000000000000000000000000600052603260045260246000fd5b602002015160076000846000600481106109e1577f4e487b7100000000000000000000000000000000000000000000000000000000600052603260045260246000fd5b602002015181526020019081526020016000208281548110610a2c577f4e487b7100000000000000000000000000000000000000000000000000000000600052603260045260246000fd5b9060005260206000209060040201600301541415610b495760006007600084600060048110610a84577f4e487b7100000000000000000000000000000000000000000000000000000000600052603260045260246000fd5b602002015181526020019081526020016000208281548110610acf577f4e487b7100000000000000000000000000000000000000000000000000000000600052603260045260246000fd5b9060005260206000209060040201905060018160010160006101000a81548160ff02191690831515021790555082600160048110610b36577f4e487b7100000000000000000000000000000000000000000000000000000000600052603260045260246000fd5b6020020151816002018190555050610b5c565b8080610b54906131e3565b915050610908565b5050505050565b60006003600083815260200190815260200160002060009054906101000a900460ff169050919050565b60606001600083815260200190815260200160002060009054906101000a900460ff16610bef576040517f08c379a0000000000000000000000000000000000000000000000000000000008152600401610be690612e6a565b60405180910390fd5b600260008381526020019081526020016000208054610c0d90613180565b80601f0160208091040260200160405190810160405280929190818152602001828054610c3990613180565b8015610c865780601f10610c5b57610100808354040283529160200191610c86565b820191906000526020600020905b815481529060010190602001808311610c6957829003601f168201915b50505050509050919050565b60068181548110610ca257600080fd5b906000526020600020016000915090505481565b60086020528160005260406000208181548110610cd257600080fd5b90600052602060002001600091509150505481565b6000600680549050905090565b60036020528060005260406000206000915054906101000a900460ff1681565b60606005805480602002602001604051908101604052809291908181526020018280548015610d6257602002820191906000526020600020905b815481526020019060010190808311610d4e575b5050505050905090565b6000600115156003600084600060018110610db0577f4e487b7100000000000000000000000000000000000000000000000000000000600052603260045260246000fd5b6020020151815260200190815260200160002060009054906101000a900460ff16151514610e13576040517f08c379a0000000000000000000000000000000000000000000000000000000008152600401610e0a90612dca565b60405180910390fd5b600c60009054906101000a900473ffffffffffffffffffffffffffffffffffffffff1673ffffffffffffffffffffffffffffffffffffffff166343753b4d868686866040518563ffffffff1660e01b8152600401610e749493929190612b71565b60206040518083038186803b158015610e8c57600080fd5b505afa158015610ea0573d6000803e3d6000fd5b505050506040513d601f19601f82011682018060405250810190610ec49190612344565b610f03576040517f08c379a0000000000000000000000000000000000000000000000000000000008152600401610efa90612e4a565b60405180910390fd5b60019050949350505050565b60076020528160005260406000208181548110610f2b57600080fd5b906000526020600020906004020160009150915050806000018054610f4f90613180565b80601f0160208091040260200160405190810160405280929190818152602001828054610f7b90613180565b8015610fc85780601f10610f9d57610100808354040283529160200191610fc8565b820191906000526020600020905b815481529060010190602001808311610fab57829003601f168201915b5050505050908060010160009054906101000a900460ff16908060020154908060030154905084565b60008060086000848152602001908152602001600020905060008180549050905060005b8181101561108757828181548110611056577f4e487b7100000000000000000000000000000000000000000000000000000000600052603260045260246000fd5b9060005260206000200154861415611074576001935050505061108f565b808061107f906131e3565b915050611015565b506000925050505b92915050565b60046020528060005260406000206000915054906101000a900460ff1681565b600581815481106110c557600080fd5b906000526020600020016000915090505481565b60606001600083815260200190815260200160002060009054906101000a900460ff1661113b576040517f08c379a000000000000000000000000000000000000000000000000000000000815260040161113290612e6a565b60405180910390fd5b6008600083815260200190815260200160002080548060200260200160405190810160405280929190818152602001828054801561119857602002820191906000526020600020905b815481526020019060010190808311611184575b50505050509050919050565b6000866040516111b49190612b38565b908152602001604051809103902060009054906101000a900460ff1615611210576040517f08c379a000000000000000000000000000000000000000000000000000000000815260040161120790612cea565b60405180910390fd5b600160008260006001811061124e577f4e487b7100000000000000000000000000000000000000000000000000000000600052603260045260246000fd5b6020020151815260200190815260200160002060009054906101000a900460ff16156112af576040517f08c379a00000000000000000000000000000000000000000000000000000000081526004016112a690612d8a565b60405180910390fd5b600b60009054906101000a900473ffffffffffffffffffffffffffffffffffffffff1673ffffffffffffffffffffffffffffffffffffffff166343753b4d858585856040518563ffffffff1660e01b81526004016113109493929190612b71565b60206040518083038186803b15801561132857600080fd5b505afa15801561133c573d6000803e3d6000fd5b505050506040513d601f19601f820116820180604052508101906113609190612344565b61139f576040517f08c379a000000000000000000000000000000000000000000000000000000000815260040161139690612e0a565b60405180910390fd5b60005b8551811015611446576113f48682815181106113e7577f4e487b7100000000000000000000000000000000000000000000000000000000600052603260045260246000fd5b6020026020010151610b63565b611433576040517f08c379a000000000000000000000000000000000000000000000000000000000815260040161142a90612e2a565b60405180910390fd5b808061143e906131e3565b9150506113a2565b5080600060018110611481577f4e487b7100000000000000000000000000000000000000000000000000000000600052603260045260246000fd5b60200201517ff0adfb94eab6daf835deb69c5738fe636150c3dfd08094a76f39b963dc8cb05a60405160405180910390a260016000876040516114c49190612b38565b908152602001604051809103902060006101000a81548160ff021916908315150217905550600180600083600060018110611528577f4e487b7100000000000000000000000000000000000000000000000000000000600052603260045260246000fd5b6020020151815260200190815260200160002060006101000a81548160ff021916908315150217905550856002600083600060018110611591577f4e487b7100000000000000000000000000000000000000000000000000000000600052603260045260246000fd5b6020020151815260200190815260200160002090805190602001906115b7929190611e5d565b506005816000600181106115f4577f4e487b7100000000000000000000000000000000000000000000000000000000600052603260045260246000fd5b6020020151908060018154018082558091505060019003906000526020600020016000909190919091505560008551905060005b818110156116fb57600860008460006001811061166e577f4e487b7100000000000000000000000000000000000000000000000000000000600052603260045260246000fd5b602002015181526020019081526020016000208782815181106116ba577f4e487b7100000000000000000000000000000000000000000000000000000000600052603260045260246000fd5b6020026020010151908060018154018082558091505060019003906000526020600020016000909190919091505580806116f3906131e3565b915050611628565b5050505050505050565b60606001600083815260200190815260200160002060009054906101000a900460ff16611767576040517f08c379a000000000000000000000000000000000000000000000000000000000815260040161175e90612e6a565b60405180910390fd5b60076000838152602001908152602001600020805480602002602001604051908101604052809291908181526020016000905b8282101561188d57838290600052602060002090600402016040518060800160405290816000820180546117cd90613180565b80601f01602080910402602001604051908101604052809291908181526020018280546117f990613180565b80156118465780601f1061181b57610100808354040283529160200191611846565b820191906000526020600020905b81548152906001019060200180831161182957829003601f168201915b505050505081526020016001820160009054906101000a900460ff16151515158152602001600282015481526020016003820154815250508152602001906001019061179a565b505050509050919050565b6118df816002600481106118d5577f4e487b7100000000000000000000000000000000000000000000000000000000600052603260045260246000fd5b6020020151610b63565b61191e576040517f08c379a000000000000000000000000000000000000000000000000000000000815260040161191590612d4a565b60405180910390fd5b600460008260006004811061195c577f4e487b7100000000000000000000000000000000000000000000000000000000600052603260045260246000fd5b6020020151815260200190815260200160002060009054906101000a900460ff16156119bd576040517f08c379a00000000000000000000000000000000000000000000000000000000081526004016119b490612caa565b60405180910390fd5b60016000826001600481106119fb577f4e487b7100000000000000000000000000000000000000000000000000000000600052603260045260246000fd5b6020020151815260200190815260200160002060009054906101000a900460ff16611a5b576040517f08c379a0000000000000000000000000000000000000000000000000000000008152600401611a5290612d6a565b60405180910390fd5b611ae181600260048110611a98577f4e487b7100000000000000000000000000000000000000000000000000000000600052603260045260246000fd5b602002015182600160048110611ad7577f4e487b7100000000000000000000000000000000000000000000000000000000600052603260045260246000fd5b6020020151610ff1565b611b20576040517f08c379a0000000000000000000000000000000000000000000000000000000008152600401611b1790612cca565b60405180910390fd5b600960009054906101000a900473ffffffffffffffffffffffffffffffffffffffff1673ffffffffffffffffffffffffffffffffffffffff16635fe8c13b858585856040518563ffffffff1660e01b8152600401611b819493929190612bb8565b60206040518083038186803b158015611b9957600080fd5b505afa158015611bad573d6000803e3d6000fd5b505050506040513d601f19601f82011682018060405250810190611bd19190612344565b611c10576040517f08c379a0000000000000000000000000000000000000000000000000000000008152600401611c0790612daa565b60405180910390fd5b60016004600083600060048110611c50577f4e487b7100000000000000000000000000000000000000000000000000000000600052603260045260246000fd5b6020020151815260200190815260200160002060006101000a81548160ff02191690831515021790555080600160048110611cb4577f4e487b7100000000000000000000000000000000000000000000000000000000600052603260045260246000fd5b60200201517f564a7c5cc8eba3723971a29bbdcbf649d6c030c7b6e05ef65d994f8d54e6386582600060048110611d14577f4e487b7100000000000000000000000000000000000000000000000000000000600052603260045260246000fd5b6020020151604051611d269190612e8a565b60405180910390a2611d36611ee3565b85816000018190525081600060048110611d79577f4e487b7100000000000000000000000000000000000000000000000000000000600052603260045260246000fd5b60200201518160600181815250506007600083600160048110611dc5577f4e487b7100000000000000000000000000000000000000000000000000000000600052603260045260246000fd5b602002015181526020019081526020016000208190806001815401808255809150506001900390600052602060002090600402016000909190919091506000820151816000019080519060200190611e1e929190611e5d565b5060208201518160010160006101000a81548160ff02191690831515021790555060408201518160020155606082015181600301555050505050505050565b828054611e6990613180565b90600052602060002090601f016020900481019282611e8b5760008555611ed2565b82601f10611ea457805160ff1916838001178555611ed2565b82800160010185558215611ed2579182015b82811115611ed1578251825591602001919060010190611eb6565b5b509050611edf9190611f0d565b5090565b60405180608001604052806060815260200160001515815260200160008152602001600081525090565b5b80821115611f26576000816000905550600101611f0e565b5090565b6000611f3d611f3884612eca565b612ea5565b90508082856040860282011115611f5357600080fd5b60005b85811015611f835781611f6988826121ae565b845260208401935060408301925050600181019050611f56565b5050509392505050565b6000611fa0611f9b84612ef0565b612ea5565b90508082856020860282011115611fb657600080fd5b60005b85811015611fe65781611fcc8882612265565b845260208401935060208301925050600181019050611fb9565b5050509392505050565b6000612003611ffe84612f16565b612ea5565b9050808285602086028201111561201957600080fd5b60005b85811015612049578161202f8882612265565b84526020840193506020830192505060018101905061201c565b5050509392505050565b600061206661206184612f3c565b612ea5565b9050808285602086028201111561207c57600080fd5b60005b858110156120ac57816120928882612265565b84526020840193506020830192505060018101905061207f565b5050509392505050565b60006120c96120c484612f62565b612ea5565b905080838252602082019050828560208602820111156120e857600080fd5b60005b8581101561211857816120fe8882612265565b8452602084019350602083019250506001810190506120eb565b5050509392505050565b600061213561213084612f8e565b612ea5565b90508281526020810184848401111561214d57600080fd5b61215884828561313e565b509392505050565b600082601f83011261217157600080fd5b600261217e848285611f2a565b91505092915050565b600082601f83011261219857600080fd5b60016121a5848285611f8d565b91505092915050565b600082601f8301126121bf57600080fd5b60026121cc848285611ff0565b91505092915050565b600082601f8301126121e657600080fd5b60046121f3848285612053565b91505092915050565b600082601f83011261220d57600080fd5b813561221d8482602086016120b6565b91505092915050565b60008151905061223581613615565b92915050565b600082601f83011261224c57600080fd5b813561225c848260208601612122565b91505092915050565b6000813590506122748161362c565b92915050565b600080600080610120858703121561229157600080fd5b600061229f878288016121ae565b94505060406122b087828801612160565b93505060c06122c1878288016121ae565b9250506101006122d387828801612187565b91505092959194509250565b60008060008061018085870312156122f657600080fd5b6000612304878288016121ae565b945050604061231587828801612160565b93505060c0612326878288016121ae565b925050610100612338878288016121d5565b91505092959194509250565b60006020828403121561235657600080fd5b600061236484828501612226565b91505092915050565b60008060008060006101a0868803121561238657600080fd5b600086013567ffffffffffffffff8111156123a057600080fd5b6123ac8882890161223b565b95505060206123bd888289016121ae565b94505060606123ce88828901612160565b93505060e06123df888289016121ae565b9250506101206123f1888289016121d5565b9150509295509295909350565b600080600080600080610160878903121561241857600080fd5b600087013567ffffffffffffffff81111561243257600080fd5b61243e89828a0161223b565b965050602087013567ffffffffffffffff81111561245b57600080fd5b61246789828a016121fc565b955050604061247889828a016121ae565b945050608061248989828a01612160565b93505061010061249b89828a016121ae565b9250506101406124ad89828a01612187565b9150509295509295509295565b6000602082840312156124cc57600080fd5b60006124da84828501612265565b91505092915050565b600080604083850312156124f657600080fd5b600061250485828601612265565b925050602061251585828601612265565b9150509250929050565b600061252b8383612686565b60408301905092915050565b60006125438383612ab7565b905092915050565b60006125578383612b1a565b60208301905092915050565b61256c81613007565b61257681846130a2565b925061258182612fbf565b8060005b838110156125b2578151612599878261251f565b96506125a483613054565b925050600181019050612585565b505050505050565b60006125c582613012565b6125cf81856130ad565b9350836020820285016125e185612fc9565b8060005b8581101561261d57848403895281516125fe8582612537565b945061260983613061565b925060208a019950506001810190506125e5565b50829750879550505050505092915050565b6126388161301d565b61264281846130be565b925061264d82612fd9565b8060005b8381101561267e578151612665878261254b565b96506126708361306e565b925050600181019050612651565b505050505050565b61268f81613028565b61269981846130c9565b92506126a482612fe3565b8060005b838110156126d55781516126bc878261254b565b96506126c78361307b565b9250506001810190506126a8565b505050505050565b6126e681613028565b6126f081846130d4565b92506126fb82612fe3565b8060005b8381101561272c578151612713878261254b565b965061271e8361307b565b9250506001810190506126ff565b505050505050565b61273d81613033565b61274781846130df565b925061275282612fed565b8060005b8381101561278357815161276a878261254b565b965061277583613088565b925050600181019050612756565b505050505050565b60006127968261303e565b6127a081856130ea565b93506127ab83612ff7565b8060005b838110156127dc5781516127c3888261254b565b97506127ce83613095565b9250506001810190506127af565b5085935050505092915050565b6127f281613128565b82525050565b61280181613128565b82525050565b600061281282613049565b61281c81856130fb565b935061282c81856020860161314d565b612835816132b9565b840191505092915050565b600061284b82613049565b612855818561310c565b935061286581856020860161314d565b61286e816132b9565b840191505092915050565b600061288482613049565b61288e818561311d565b935061289e81856020860161314d565b80840191505092915050565b60006128b760338361310c565b91506128c2826132ca565b604082019050919050565b60006128da601b8361310c565b91506128e582613319565b602082019050919050565b60006128fd601a8361310c565b915061290882613342565b602082019050919050565b6000612920602a8361310c565b915061292b8261336b565b604082019050919050565b600061294360168361310c565b915061294e826133ba565b602082019050919050565b600061296660178361310c565b9150612971826133e3565b602082019050919050565b600061298960238361310c565b91506129948261340c565b604082019050919050565b60006129ac604c8361310c565b91506129b78261345b565b606082019050919050565b60006129cf60158361310c565b91506129da826134d0565b602082019050919050565b60006129f2602a8361310c565b91506129fd826134f9565b604082019050919050565b6000612a1560148361310c565b9150612a2082613548565b602082019050919050565b6000612a3860128361310c565b9150612a4382613571565b602082019050919050565b6000612a5b601c8361310c565b9150612a668261359a565b602082019050919050565b6000612a7e60138361310c565b9150612a89826135c3565b602082019050919050565b6000612aa160128361310c565b9150612aac826135ec565b602082019050919050565b60006080830160008301518482036000860152612ad48282612807565b9150506020830151612ae960208601826127e9565b506040830151612afc6040860182612b1a565b506060830151612b0f6060860182612b1a565b508091505092915050565b612b2381613134565b82525050565b612b3281613134565b82525050565b6000612b448284612879565b915081905092915050565b60006020820190508181036000830152612b6981846125ba565b905092915050565b600061012082019050612b8760008301876126dd565b612b946040830186612563565b612ba160c08301856126dd565b612baf61010083018461262f565b95945050505050565b600061018082019050612bce60008301876126dd565b612bdb6040830186612563565b612be860c08301856126dd565b612bf6610100830184612734565b95945050505050565b60006020820190508181036000830152612c19818461278b565b905092915050565b6000602082019050612c3660008301846127f8565b92915050565b60006020820190508181036000830152612c568184612840565b905092915050565b60006080820190508181036000830152612c788187612840565b9050612c8760208301866127f8565b612c946040830185612b29565b612ca16060830184612b29565b95945050505050565b60006020820190508181036000830152612cc3816128aa565b9050919050565b60006020820190508181036000830152612ce3816128cd565b9050919050565b60006020820190508181036000830152612d03816128f0565b9050919050565b60006020820190508181036000830152612d2381612913565b9050919050565b60006020820190508181036000830152612d4381612936565b9050919050565b60006020820190508181036000830152612d6381612959565b9050919050565b60006020820190508181036000830152612d838161297c565b9050919050565b60006020820190508181036000830152612da38161299f565b9050919050565b60006020820190508181036000830152612dc3816129c2565b9050919050565b60006020820190508181036000830152612de3816129e5565b9050919050565b60006020820190508181036000830152612e0381612a08565b9050919050565b60006020820190508181036000830152612e2381612a2b565b9050919050565b60006020820190508181036000830152612e4381612a4e565b9050919050565b60006020820190508181036000830152612e6381612a71565b9050919050565b60006020820190508181036000830152612e8381612a94565b9050919050565b6000602082019050612e9f6000830184612b29565b92915050565b6000612eaf612ec0565b9050612ebb82826131b2565b919050565b6000604051905090565b600067ffffffffffffffff821115612ee557612ee461328a565b5b602082029050919050565b600067ffffffffffffffff821115612f0b57612f0a61328a565b5b602082029050919050565b600067ffffffffffffffff821115612f3157612f3061328a565b5b602082029050919050565b600067ffffffffffffffff821115612f5757612f5661328a565b5b602082029050919050565b600067ffffffffffffffff821115612f7d57612f7c61328a565b5b602082029050602081019050919050565b600067ffffffffffffffff821115612fa957612fa861328a565b5b612fb2826132b9565b9050602081019050919050565b6000819050919050565b6000819050602082019050919050565b6000819050919050565b6000819050919050565b6000819050919050565b6000819050602082019050919050565b600060029050919050565b600081519050919050565b600060019050919050565b600060029050919050565b600060049050919050565b600081519050919050565b600081519050919050565b6000602082019050919050565b6000602082019050919050565b6000602082019050919050565b6000602082019050919050565b6000602082019050919050565b6000602082019050919050565b600081905092915050565b600082825260208201905092915050565b600081905092915050565b600081905092915050565b600081905092915050565b600081905092915050565b600082825260208201905092915050565b600082825260208201905092915050565b600082825260208201905092915050565b600081905092915050565b60008115159050919050565b6000819050919050565b82818337600083830152505050565b60005b8381101561316b578082015181840152602081019050613150565b8381111561317a576000848401525b50505050565b6000600282049050600182168061319857607f821691505b602082108114156131ac576131ab61325b565b5b50919050565b6131bb826132b9565b810181811067ffffffffffffffff821117156131da576131d961328a565b5b80604052505050565b60006131ee82613134565b91507fffffffffffffffffffffffffffffffffffffffffffffffffffffffffffffffff8214156132215761322061322c565b5b600182019050919050565b7f4e487b7100000000000000000000000000000000000000000000000000000000600052601160045260246000fd5b7f4e487b7100000000000000000000000000000000000000000000000000000000600052602260045260246000fd5b7f4e487b7100000000000000000000000000000000000000000000000000000000600052604160045260246000fd5b6000601f19601f8301169050919050565b7f506c65617365206368616e67652073616c742c206d757374206861766520756e60008201527f69717565206d73674174746573746174696f6e00000000000000000000000000602082015250565b7f75736572206e6f7420696e207370656369666965642067726f75700000000000600082015250565b7f47726f7570204e616d6520416c72656164792045786973747321000000000000600082015250565b7f61207573657220616c726561647920657869737473207769746820746861742060008201527f7075626c6963206b657900000000000000000000000000000000000000000000602082015250565b7f496e76616c69642052656769737465722050726f6f6600000000000000000000600082015250565b7f55736572206d7573742062652072656769737465726564000000000000000000600082015250565b7f5370656369666965642047726f757020526f6f7420446f6573204e6f7420457860008201527f6973740000000000000000000000000000000000000000000000000000000000602082015250565b7f526f6f7420416c7265616479204578697374732c20692e652e2074686520677260008201527f6f757020796f752061726520747279696e6720746f2063726561746520616c7260208201527f6561647920657869737473210000000000000000000000000000000000000000604082015250565b7f496e76616c6964204d6573736167652050726f6f660000000000000000000000600082015250565b7f61207573657220646f65736e277420657869737473207769746820746861742060008201527f7075626c6963206b657900000000000000000000000000000000000000000000602082015250565b7f496e76616c69642052657665616c2050726f6f66000000000000000000000000600082015250565b7f496e76616c696420526f6f742050726f6f660000000000000000000000000000600082015250565b7f4c656166206d7573742062652072656769737465726564207573657200000000600082015250565b7f496e76616c6964204c6f67696e2050726f6f6600000000000000000000000000600082015250565b7f726f6f7420646f65736e27742065786973740000000000000000000000000000600082015250565b61361e81613128565b811461362957600080fd5b50565b61363581613134565b811461364057600080fd5b5056fea2646970667358221220e21113f35475cd591d6cf328e95a66a7c38442ae3667fafe35323cdfcee79a1e64736f6c63430008040033",
  "linkReferences": {},
  "deployedLinkReferences": {}
}