{
  "_format": "hh-sol-artifact-1",
  "contractName": "MessageBoard",
  "sourceName": "contracts/MessageBoard.sol",
  "abi": [
    {
      "inputs": [
        {
          "internalType": "address",
          "name": "_signVerifier",
          "type": "address"
        },
        {
          "internalType": "address",
          "name": "_rootVerifier",
          "type": "address"
        },
        {
          "internalType": "address",
          "name": "_revealVerifier",
          "type": "address"
        },
        {
          "internalType": "address",
          "name": "_registerVerifier",
          "type": "address"
        }
      ],
      "stateMutability": "nonpayable",
      "type": "constructor"
    },
    {
      "anonymous": false,
      "inputs": [
        {
          "indexed": true,
          "internalType": "uint256",
          "name": "root",
          "type": "uint256"
        }
      ],
      "name": "GroupCreated",
      "type": "event"
    },
    {
      "anonymous": false,
      "inputs": [
        {
          "indexed": true,
          "internalType": "uint256",
          "name": "root",
          "type": "uint256"
        },
        {
          "indexed": false,
          "internalType": "uint256",
          "name": "messageAttestation",
          "type": "uint256"
        }
      ],
      "name": "MessageAdded",
      "type": "event"
    },
    {
      "anonymous": false,
      "inputs": [
        {
          "indexed": true,
          "internalType": "uint256",
          "name": "root",
          "type": "uint256"
        },
        {
          "indexed": false,
          "internalType": "uint256",
          "name": "leaf",
          "type": "uint256"
        }
      ],
      "name": "MessageRevealed",
      "type": "event"
    },
    {
      "anonymous": false,
      "inputs": [
        {
          "indexed": true,
          "internalType": "uint256",
          "name": "leaf",
          "type": "uint256"
        }
      ],
      "name": "UserRegistered",
      "type": "event"
    },
    {
      "inputs": [
        {
          "internalType": "string",
          "name": "_groupname",
          "type": "string"
        },
        {
          "internalType": "uint256[]",
          "name": "_users",
          "type": "uint256[]"
        },
        {
          "internalType": "uint256[2]",
          "name": "_a",
          "type": "uint256[2]"
        },
        {
          "internalType": "uint256[2][2]",
          "name": "_b",
          "type": "uint256[2][2]"
        },
        {
          "internalType": "uint256[2]",
          "name": "_c",
          "type": "uint256[2]"
        },
        {
          "internalType": "uint256[1]",
          "name": "_input",
          "type": "uint256[1]"
        }
      ],
      "name": "createGroup",
      "outputs": [],
      "stateMutability": "nonpayable",
      "type": "function"
    },
    {
      "inputs": [
        {
          "internalType": "uint256",
          "name": "_root",
          "type": "uint256"
        }
      ],
      "name": "getGroupFullInfo",
      "outputs": [
        {
          "components": [
            {
              "internalType": "string",
              "name": "text",
              "type": "string"
            },
            {
              "internalType": "bool",
              "name": "revealed",
              "type": "bool"
            },
            {
              "internalType": "uint256",
              "name": "leaf",
              "type": "uint256"
            },
            {
              "internalType": "uint256",
              "name": "msgAttestation",
              "type": "uint256"
            }
          ],
          "internalType": "struct CoreStorage.Message[]",
          "name": "",
          "type": "tuple[]"
        }
      ],
      "stateMutability": "view",
      "type": "function"
    },
    {
      "inputs": [
        {
          "internalType": "uint256",
          "name": "_root",
          "type": "uint256"
        }
      ],
      "name": "getGroupName",
      "outputs": [
        {
          "internalType": "string",
          "name": "",
          "type": "string"
        }
      ],
      "stateMutability": "view",
      "type": "function"
    },
    {
      "inputs": [],
      "name": "getGroupRoots",
      "outputs": [
        {
          "internalType": "uint256[]",
          "name": "",
          "type": "uint256[]"
        }
      ],
      "stateMutability": "view",
      "type": "function"
    },
    {
      "inputs": [
        {
          "internalType": "uint256",
          "name": "_root",
          "type": "uint256"
        }
      ],
      "name": "getGroupUsers",
      "outputs": [
        {
          "internalType": "uint256[]",
          "name": "",
          "type": "uint256[]"
        }
      ],
      "stateMutability": "view",
      "type": "function"
    },
    {
      "inputs": [],
      "name": "getUsers",
      "outputs": [
        {
          "internalType": "uint256[]",
          "name": "",
          "type": "uint256[]"
        }
      ],
      "stateMutability": "view",
      "type": "function"
    },
    {
      "inputs": [],
      "name": "getUsersLength",
      "outputs": [
        {
          "internalType": "uint256",
          "name": "",
          "type": "uint256"
        }
      ],
      "stateMutability": "view",
      "type": "function"
    },
    {
      "inputs": [
        {
          "internalType": "uint256",
          "name": "",
          "type": "uint256"
        },
        {
          "internalType": "uint256",
          "name": "",
          "type": "uint256"
        }
      ],
      "name": "groups",
      "outputs": [
        {
          "internalType": "uint256",
          "name": "",
          "type": "uint256"
        }
      ],
      "stateMutability": "view",
      "type": "function"
    },
    {
      "inputs": [
        {
          "internalType": "uint256",
          "name": "_pubKey",
          "type": "uint256"
        }
      ],
      "name": "isUser",
      "outputs": [
        {
          "internalType": "bool",
          "name": "",
          "type": "bool"
        }
      ],
      "stateMutability": "view",
      "type": "function"
    },
    {
      "inputs": [
        {
          "internalType": "uint256[2]",
          "name": "_a",
          "type": "uint256[2]"
        },
        {
          "internalType": "uint256[2][2]",
          "name": "_b",
          "type": "uint256[2][2]"
        },
        {
          "internalType": "uint256[2]",
          "name": "_c",
          "type": "uint256[2]"
        },
        {
          "internalType": "uint256[1]",
          "name": "_input",
          "type": "uint256[1]"
        }
      ],
      "name": "loginUser",
      "outputs": [
        {
          "internalType": "bool",
          "name": "",
          "type": "bool"
        }
      ],
      "stateMutability": "view",
      "type": "function"
    },
    {
      "inputs": [
        {
          "internalType": "uint256",
          "name": "",
          "type": "uint256"
        },
        {
          "internalType": "uint256",
          "name": "",
          "type": "uint256"
        }
      ],
      "name": "messages",
      "outputs": [
        {
          "internalType": "string",
          "name": "text",
          "type": "string"
        },
        {
          "internalType": "bool",
          "name": "revealed",
          "type": "bool"
        },
        {
          "internalType": "uint256",
          "name": "leaf",
          "type": "uint256"
        },
        {
          "internalType": "uint256",
          "name": "msgAttestation",
          "type": "uint256"
        }
      ],
      "stateMutability": "view",
      "type": "function"
    },
    {
      "inputs": [
        {
          "internalType": "uint256",
          "name": "",
          "type": "uint256"
        }
      ],
      "name": "msgAttestations",
      "outputs": [
        {
          "internalType": "bool",
          "name": "",
          "type": "bool"
        }
      ],
      "stateMutability": "view",
      "type": "function"
    },
    {
      "inputs": [
        {
          "internalType": "uint256[2]",
          "name": "_a",
          "type": "uint256[2]"
        },
        {
          "internalType": "uint256[2][2]",
          "name": "_b",
          "type": "uint256[2][2]"
        },
        {
          "internalType": "uint256[2]",
          "name": "_c",
          "type": "uint256[2]"
        },
        {
          "internalType": "uint256[1]",
          "name": "_input",
          "type": "uint256[1]"
        }
      ],
      "name": "registerUser",
      "outputs": [],
      "stateMutability": "nonpayable",
      "type": "function"
    },
    {
      "inputs": [
        {
          "internalType": "uint256",
          "name": "",
          "type": "uint256"
        }
      ],
      "name": "registeredUsers",
      "outputs": [
        {
          "internalType": "bool",
          "name": "",
          "type": "bool"
        }
      ],
      "stateMutability": "view",
      "type": "function"
    },
    {
      "inputs": [
        {
          "internalType": "uint256[2]",
          "name": "_a",
          "type": "uint256[2]"
        },
        {
          "internalType": "uint256[2][2]",
          "name": "_b",
          "type": "uint256[2][2]"
        },
        {
          "internalType": "uint256[2]",
          "name": "_c",
          "type": "uint256[2]"
        },
        {
          "internalType": "uint256[4]",
          "name": "_input",
          "type": "uint256[4]"
        }
      ],
      "name": "revealMessage",
      "outputs": [],
      "stateMutability": "nonpayable",
      "type": "function"
    },
    {
      "inputs": [
        {
          "internalType": "uint256",
          "name": "",
          "type": "uint256"
        }
      ],
      "name": "roots",
      "outputs": [
        {
          "internalType": "uint256",
          "name": "",
          "type": "uint256"
        }
      ],
      "stateMutability": "view",
      "type": "function"
    },
    {
      "inputs": [
        {
          "internalType": "string",
          "name": "_message",
          "type": "string"
        },
        {
          "internalType": "uint256[2]",
          "name": "_a",
          "type": "uint256[2]"
        },
        {
          "internalType": "uint256[2][2]",
          "name": "_b",
          "type": "uint256[2][2]"
        },
        {
          "internalType": "uint256[2]",
          "name": "_c",
          "type": "uint256[2]"
        },
        {
          "internalType": "uint256[4]",
          "name": "_input",
          "type": "uint256[4]"
        }
      ],
      "name": "sendMessage",
      "outputs": [],
      "stateMutability": "nonpayable",
      "type": "function"
    },
    {
      "inputs": [
        {
          "internalType": "uint256",
          "name": "_pubKey",
          "type": "uint256"
        },
        {
          "internalType": "uint256",
          "name": "_root",
          "type": "uint256"
        }
      ],
      "name": "userInGroup",
      "outputs": [
        {
          "internalType": "bool",
          "name": "",
          "type": "bool"
        }
      ],
      "stateMutability": "view",
      "type": "function"
    },
    {
      "inputs": [
        {
          "internalType": "uint256",
          "name": "",
          "type": "uint256"
        }
      ],
      "name": "users",
      "outputs": [
        {
          "internalType": "uint256",
          "name": "",
          "type": "uint256"
        }
      ],
      "stateMutability": "view",
      "type": "function"
    }
  ],
  "bytecode": "0x60806040527f30644e72e131a029b85045b68181585d2833e84879b9709143e1f593f0000001600d553480156200003557600080fd5b506040516200390b3803806200390b83398181016040528101906200005b919062000180565b83600960006101000a81548173ffffffffffffffffffffffffffffffffffffffff021916908373ffffffffffffffffffffffffffffffffffffffff16021790555081600a60006101000a81548173ffffffffffffffffffffffffffffffffffffffff021916908373ffffffffffffffffffffffffffffffffffffffff16021790555082600b60006101000a81548173ffffffffffffffffffffffffffffffffffffffff021916908373ffffffffffffffffffffffffffffffffffffffff16021790555080600c60006101000a81548173ffffffffffffffffffffffffffffffffffffffff021916908373ffffffffffffffffffffffffffffffffffffffff160217905550505050506200023a565b6000815190506200017a8162000220565b92915050565b600080600080608085870312156200019757600080fd5b6000620001a78782880162000169565b9450506020620001ba8782880162000169565b9350506040620001cd8782880162000169565b9250506060620001e08782880162000169565b91505092959194509250565b6000620001f98262000200565b9050919050565b600073ffffffffffffffffffffffffffffffffffffffff82169050919050565b6200022b81620001ec565b81146200023757600080fd5b50565b6136c1806200024a6000396000f3fe608060405234801561001057600080fd5b50600436106101205760003560e01c806375f05c65116100ad578063c2b40ae411610071578063c2b40ae41461036a578063dc772f701461039a578063e5348dbc146103ca578063f3ffd38f146103e6578063f8a5ace91461041657610120565b806375f05c6514610289578063835c2e55146102a75780638f272112146102d75780639348935a1461030a578063be0cc32d1461033a57610120565b806329a6ca32116100f457806329a6ca32146101ab578063365b98b2146101db5780634ae855cf1461020b578063595b1a3e1461023b5780637259e0f81461025957610120565b8062ce8e3e146101255780630c164c361461014357806312777b611461015f57806318a9cc1b1461017b575b600080fd5b61012d610432565b60405161013a9190612c47565b60405180910390f35b61015d600480360381019061015891906122c2565b61048a565b005b61017960048036038101906101749190612327565b610761565b005b61019560048036038101906101909190612502565b610b63565b6040516101a29190612c69565b60405180910390f35b6101c560048036038101906101c09190612502565b610b8d565b6040516101d29190612c84565b60405180910390f35b6101f560048036038101906101f09190612502565b610c92565b6040516102029190612ed2565b60405180910390f35b6102256004803603810190610220919061252b565b610cb6565b6040516102329190612ed2565b60405180910390f35b610243610ce7565b6040516102509190612ed2565b60405180910390f35b610273600480360381019061026e9190612502565b610cf4565b6040516102809190612c69565b60405180910390f35b610291610d14565b60405161029e9190612c47565b60405180910390f35b6102c160048036038101906102bc91906122c2565b610d6c565b6040516102ce9190612c69565b60405180910390f35b6102f160048036038101906102ec919061252b565b610f0f565b6040516103019493929190612ca6565b60405180910390f35b610324600480360381019061031f919061252b565b610ff1565b6040516103319190612c69565b60405180910390f35b610354600480360381019061034f9190612502565b611095565b6040516103619190612c69565b60405180910390f35b610384600480360381019061037f9190612502565b6110b5565b6040516103919190612ed2565b60405180910390f35b6103b460048036038101906103af9190612502565b6110d9565b6040516103c19190612c47565b60405180910390f35b6103e460048036038101906103df9190612446565b6111a4565b005b61040060048036038101906103fb9190612502565b611705565b60405161040d9190612b97565b60405180910390f35b610430600480360381019061042b91906123b5565b611898565b005b6060600680548060200260200160405190810160405280929190818152602001828054801561048057602002820191906000526020600020905b81548152602001906001019080831161046c575b5050505050905090565b6000151560036000836000600181106104cc577f4e487b7100000000000000000000000000000000000000000000000000000000600052603260045260246000fd5b6020020151815260200190815260200160002060009054906101000a900460ff1615151461052f576040517f08c379a000000000000000000000000000000000000000000000000000000000815260040161052690612d52565b60405180910390fd5b600c60009054906101000a900473ffffffffffffffffffffffffffffffffffffffff1673ffffffffffffffffffffffffffffffffffffffff166343753b4d858585856040518563ffffffff1660e01b81526004016105909493929190612bb9565b60206040518083038186803b1580156105a857600080fd5b505afa1580156105bc573d6000803e3d6000fd5b505050506040513d601f19601f820116820180604052508101906105e0919061238c565b61061f576040517f08c379a000000000000000000000000000000000000000000000000000000000815260040161061690612d72565b60405180910390fd5b6001600360008360006001811061065f577f4e487b7100000000000000000000000000000000000000000000000000000000600052603260045260246000fd5b6020020151815260200190815260200160002060006101000a81548160ff0219169083151502179055506006816000600181106106c5577f4e487b7100000000000000000000000000000000000000000000000000000000600052603260045260246000fd5b602002015190806001815401808255809150506001900390600052602060002001600090919091909150558060006001811061072a577f4e487b7100000000000000000000000000000000000000000000000000000000600052603260045260246000fd5b60200201517f6b1da47e6cb6a4952c75fff4300f06caf20aa8269a4a398f315562926c5bed3960405160405180910390a250505050565b600a60009054906101000a900473ffffffffffffffffffffffffffffffffffffffff1673ffffffffffffffffffffffffffffffffffffffff16635fe8c13b858585856040518563ffffffff1660e01b81526004016107c29493929190612c00565b60206040518083038186803b1580156107da57600080fd5b505afa1580156107ee573d6000803e3d6000fd5b505050506040513d601f19601f82011682018060405250810190610812919061238c565b610851576040517f08c379a000000000000000000000000000000000000000000000000000000000815260040161084890612e32565b60405180910390fd5b8060006004811061088b577f4e487b7100000000000000000000000000000000000000000000000000000000600052603260045260246000fd5b60200201517f393637e45ada8d7dd2318c598ef4a7fd5a7131b99dd29960ff1d0c725adafe8c826001600481106108eb577f4e487b7100000000000000000000000000000000000000000000000000000000600052603260045260246000fd5b60200201516040516108fd9190612ed2565b60405180910390a260005b6007600083600060048110610946577f4e487b7100000000000000000000000000000000000000000000000000000000600052603260045260246000fd5b6020020151815260200190815260200160002080549050811015610b5c578160036004811061099e577f4e487b7100000000000000000000000000000000000000000000000000000000600052603260045260246000fd5b602002015160076000846000600481106109e1577f4e487b7100000000000000000000000000000000000000000000000000000000600052603260045260246000fd5b602002015181526020019081526020016000208281548110610a2c577f4e487b7100000000000000000000000000000000000000000000000000000000600052603260045260246000fd5b9060005260206000209060040201600301541415610b495760006007600084600060048110610a84577f4e487b7100000000000000000000000000000000000000000000000000000000600052603260045260246000fd5b602002015181526020019081526020016000208281548110610acf577f4e487b7100000000000000000000000000000000000000000000000000000000600052603260045260246000fd5b9060005260206000209060040201905060018160010160006101000a81548160ff02191690831515021790555082600160048110610b36577f4e487b7100000000000000000000000000000000000000000000000000000000600052603260045260246000fd5b6020020151816002018190555050610b5c565b8080610b549061322b565b915050610908565b5050505050565b60006003600083815260200190815260200160002060009054906101000a900460ff169050919050565b60606001600083815260200190815260200160002060009054906101000a900460ff16610bef576040517f08c379a0000000000000000000000000000000000000000000000000000000008152600401610be690612eb2565b60405180910390fd5b600260008381526020019081526020016000208054610c0d906131c8565b80601f0160208091040260200160405190810160405280929190818152602001828054610c39906131c8565b8015610c865780601f10610c5b57610100808354040283529160200191610c86565b820191906000526020600020905b815481529060010190602001808311610c6957829003601f168201915b50505050509050919050565b60068181548110610ca257600080fd5b906000526020600020016000915090505481565b60086020528160005260406000208181548110610cd257600080fd5b90600052602060002001600091509150505481565b6000600680549050905090565b60036020528060005260406000206000915054906101000a900460ff1681565b60606005805480602002602001604051908101604052809291908181526020018280548015610d6257602002820191906000526020600020905b815481526020019060010190808311610d4e575b5050505050905090565b6000600115156003600084600060018110610db0577f4e487b7100000000000000000000000000000000000000000000000000000000600052603260045260246000fd5b6020020151815260200190815260200160002060009054906101000a900460ff16151514610e13576040517f08c379a0000000000000000000000000000000000000000000000000000000008152600401610e0a90612e12565b60405180910390fd5b600c60009054906101000a900473ffffffffffffffffffffffffffffffffffffffff1673ffffffffffffffffffffffffffffffffffffffff166343753b4d868686866040518563ffffffff1660e01b8152600401610e749493929190612bb9565b60206040518083038186803b158015610e8c57600080fd5b505afa158015610ea0573d6000803e3d6000fd5b505050506040513d601f19601f82011682018060405250810190610ec4919061238c565b610f03576040517f08c379a0000000000000000000000000000000000000000000000000000000008152600401610efa90612e92565b60405180910390fd5b60019050949350505050565b60076020528160005260406000208181548110610f2b57600080fd5b906000526020600020906004020160009150915050806000018054610f4f906131c8565b80601f0160208091040260200160405190810160405280929190818152602001828054610f7b906131c8565b8015610fc85780601f10610f9d57610100808354040283529160200191610fc8565b820191906000526020600020905b815481529060010190602001808311610fab57829003601f168201915b5050505050908060010160009054906101000a900460ff16908060020154908060030154905084565b60008060086000848152602001908152602001600020905060008180549050905060005b8181101561108757828181548110611056577f4e487b7100000000000000000000000000000000000000000000000000000000600052603260045260246000fd5b9060005260206000200154861415611074576001935050505061108f565b808061107f9061322b565b915050611015565b506000925050505b92915050565b60046020528060005260406000206000915054906101000a900460ff1681565b600581815481106110c557600080fd5b906000526020600020016000915090505481565b60606001600083815260200190815260200160002060009054906101000a900460ff1661113b576040517f08c379a000000000000000000000000000000000000000000000000000000000815260040161113290612eb2565b60405180910390fd5b6008600083815260200190815260200160002080548060200260200160405190810160405280929190818152602001828054801561119857602002820191906000526020600020905b815481526020019060010190808311611184575b50505050509050919050565b6000866040516111b49190612b80565b908152602001604051809103902060009054906101000a900460ff1615611210576040517f08c379a000000000000000000000000000000000000000000000000000000000815260040161120790612d32565b60405180910390fd5b600160008260006001811061124e577f4e487b7100000000000000000000000000000000000000000000000000000000600052603260045260246000fd5b6020020151815260200190815260200160002060009054906101000a900460ff16156112af576040517f08c379a00000000000000000000000000000000000000000000000000000000081526004016112a690612dd2565b60405180910390fd5b600b60009054906101000a900473ffffffffffffffffffffffffffffffffffffffff1673ffffffffffffffffffffffffffffffffffffffff166343753b4d858585856040518563ffffffff1660e01b81526004016113109493929190612bb9565b60206040518083038186803b15801561132857600080fd5b505afa15801561133c573d6000803e3d6000fd5b505050506040513d601f19601f82011682018060405250810190611360919061238c565b61139f576040517f08c379a000000000000000000000000000000000000000000000000000000000815260040161139690612e52565b60405180910390fd5b60005b8551811015611446576113f48682815181106113e7577f4e487b7100000000000000000000000000000000000000000000000000000000600052603260045260246000fd5b6020026020010151610b63565b611433576040517f08c379a000000000000000000000000000000000000000000000000000000000815260040161142a90612e72565b60405180910390fd5b808061143e9061322b565b9150506113a2565b5080600060018110611481577f4e487b7100000000000000000000000000000000000000000000000000000000600052603260045260246000fd5b60200201517ff0adfb94eab6daf835deb69c5738fe636150c3dfd08094a76f39b963dc8cb05a60405160405180910390a260016000876040516114c49190612b80565b908152602001604051809103902060006101000a81548160ff021916908315150217905550600180600083600060018110611528577f4e487b7100000000000000000000000000000000000000000000000000000000600052603260045260246000fd5b6020020151815260200190815260200160002060006101000a81548160ff021916908315150217905550856002600083600060018110611591577f4e487b7100000000000000000000000000000000000000000000000000000000600052603260045260246000fd5b6020020151815260200190815260200160002090805190602001906115b7929190611ea5565b506005816000600181106115f4577f4e487b7100000000000000000000000000000000000000000000000000000000600052603260045260246000fd5b6020020151908060018154018082558091505060019003906000526020600020016000909190919091505560008551905060005b818110156116fb57600860008460006001811061166e577f4e487b7100000000000000000000000000000000000000000000000000000000600052603260045260246000fd5b602002015181526020019081526020016000208782815181106116ba577f4e487b7100000000000000000000000000000000000000000000000000000000600052603260045260246000fd5b6020026020010151908060018154018082558091505060019003906000526020600020016000909190919091505580806116f39061322b565b915050611628565b5050505050505050565b60606001600083815260200190815260200160002060009054906101000a900460ff16611767576040517f08c379a000000000000000000000000000000000000000000000000000000000815260040161175e90612eb2565b60405180910390fd5b60076000838152602001908152602001600020805480602002602001604051908101604052809291908181526020016000905b8282101561188d57838290600052602060002090600402016040518060800160405290816000820180546117cd906131c8565b80601f01602080910402602001604051908101604052809291908181526020018280546117f9906131c8565b80156118465780601f1061181b57610100808354040283529160200191611846565b820191906000526020600020905b81548152906001019060200180831161182957829003601f168201915b505050505081526020016001820160009054906101000a900460ff16151515158152602001600282015481526020016003820154815250508152602001906001019061179a565b505050509050919050565b6118df816002600481106118d5577f4e487b7100000000000000000000000000000000000000000000000000000000600052603260045260246000fd5b6020020151610b63565b61191e576040517f08c379a000000000000000000000000000000000000000000000000000000000815260040161191590612d92565b60405180910390fd5b600460008260006004811061195c577f4e487b7100000000000000000000000000000000000000000000000000000000600052603260045260246000fd5b6020020151815260200190815260200160002060009054906101000a900460ff16156119bd576040517f08c379a00000000000000000000000000000000000000000000000000000000081526004016119b490612cf2565b60405180910390fd5b60016000826001600481106119fb577f4e487b7100000000000000000000000000000000000000000000000000000000600052603260045260246000fd5b6020020151815260200190815260200160002060009054906101000a900460ff16611a5b576040517f08c379a0000000000000000000000000000000000000000000000000000000008152600401611a5290612db2565b60405180910390fd5b611ae181600260048110611a98577f4e487b7100000000000000000000000000000000000000000000000000000000600052603260045260246000fd5b602002015182600160048110611ad7577f4e487b7100000000000000000000000000000000000000000000000000000000600052603260045260246000fd5b6020020151610ff1565b611b20576040517f08c379a0000000000000000000000000000000000000000000000000000000008152600401611b1790612d12565b60405180910390fd5b600960009054906101000a900473ffffffffffffffffffffffffffffffffffffffff1673ffffffffffffffffffffffffffffffffffffffff16635fe8c13b858585856040518563ffffffff1660e01b8152600401611b819493929190612c00565b60206040518083038186803b158015611b9957600080fd5b505afa158015611bad573d6000803e3d6000fd5b505050506040513d601f19601f82011682018060405250810190611bd1919061238c565b611c10576040517f08c379a0000000000000000000000000000000000000000000000000000000008152600401611c0790612df2565b60405180910390fd5b60016004600083600060048110611c50577f4e487b7100000000000000000000000000000000000000000000000000000000600052603260045260246000fd5b6020020151815260200190815260200160002060006101000a81548160ff02191690831515021790555080600160048110611cb4577f4e487b7100000000000000000000000000000000000000000000000000000000600052603260045260246000fd5b60200201517f564a7c5cc8eba3723971a29bbdcbf649d6c030c7b6e05ef65d994f8d54e6386582600060048110611d14577f4e487b7100000000000000000000000000000000000000000000000000000000600052603260045260246000fd5b6020020151604051611d269190612ed2565b60405180910390a2611d36611f2b565b85816000018190525081600060048110611d79577f4e487b7100000000000000000000000000000000000000000000000000000000600052603260045260246000fd5b602002015181606001818152505081600260048110611dc1577f4e487b7100000000000000000000000000000000000000000000000000000000600052603260045260246000fd5b60200201518160400181815250506007600083600160048110611e0d577f4e487b7100000000000000000000000000000000000000000000000000000000600052603260045260246000fd5b602002015181526020019081526020016000208190806001815401808255809150506001900390600052602060002090600402016000909190919091506000820151816000019080519060200190611e66929190611ea5565b5060208201518160010160006101000a81548160ff02191690831515021790555060408201518160020155606082015181600301555050505050505050565b828054611eb1906131c8565b90600052602060002090601f016020900481019282611ed35760008555611f1a565b82601f10611eec57805160ff1916838001178555611f1a565b82800160010185558215611f1a579182015b82811115611f19578251825591602001919060010190611efe565b5b509050611f279190611f55565b5090565b60405180608001604052806060815260200160001515815260200160008152602001600081525090565b5b80821115611f6e576000816000905550600101611f56565b5090565b6000611f85611f8084612f12565b612eed565b90508082856040860282011115611f9b57600080fd5b60005b85811015611fcb5781611fb188826121f6565b845260208401935060408301925050600181019050611f9e565b5050509392505050565b6000611fe8611fe384612f38565b612eed565b90508082856020860282011115611ffe57600080fd5b60005b8581101561202e578161201488826122ad565b845260208401935060208301925050600181019050612001565b5050509392505050565b600061204b61204684612f5e565b612eed565b9050808285602086028201111561206157600080fd5b60005b85811015612091578161207788826122ad565b845260208401935060208301925050600181019050612064565b5050509392505050565b60006120ae6120a984612f84565b612eed565b905080828560208602820111156120c457600080fd5b60005b858110156120f457816120da88826122ad565b8452602084019350602083019250506001810190506120c7565b5050509392505050565b600061211161210c84612faa565b612eed565b9050808382526020820190508285602086028201111561213057600080fd5b60005b85811015612160578161214688826122ad565b845260208401935060208301925050600181019050612133565b5050509392505050565b600061217d61217884612fd6565b612eed565b90508281526020810184848401111561219557600080fd5b6121a0848285613186565b509392505050565b600082601f8301126121b957600080fd5b60026121c6848285611f72565b91505092915050565b600082601f8301126121e057600080fd5b60016121ed848285611fd5565b91505092915050565b600082601f83011261220757600080fd5b6002612214848285612038565b91505092915050565b600082601f83011261222e57600080fd5b600461223b84828561209b565b91505092915050565b600082601f83011261225557600080fd5b81356122658482602086016120fe565b91505092915050565b60008151905061227d8161365d565b92915050565b600082601f83011261229457600080fd5b81356122a484826020860161216a565b91505092915050565b6000813590506122bc81613674565b92915050565b60008060008061012085870312156122d957600080fd5b60006122e7878288016121f6565b94505060406122f8878288016121a8565b93505060c0612309878288016121f6565b92505061010061231b878288016121cf565b91505092959194509250565b600080600080610180858703121561233e57600080fd5b600061234c878288016121f6565b945050604061235d878288016121a8565b93505060c061236e878288016121f6565b9250506101006123808782880161221d565b91505092959194509250565b60006020828403121561239e57600080fd5b60006123ac8482850161226e565b91505092915050565b60008060008060006101a086880312156123ce57600080fd5b600086013567ffffffffffffffff8111156123e857600080fd5b6123f488828901612283565b9550506020612405888289016121f6565b9450506060612416888289016121a8565b93505060e0612427888289016121f6565b9250506101206124398882890161221d565b9150509295509295909350565b600080600080600080610160878903121561246057600080fd5b600087013567ffffffffffffffff81111561247a57600080fd5b61248689828a01612283565b965050602087013567ffffffffffffffff8111156124a357600080fd5b6124af89828a01612244565b95505060406124c089828a016121f6565b94505060806124d189828a016121a8565b9350506101006124e389828a016121f6565b9250506101406124f589828a016121cf565b9150509295509295509295565b60006020828403121561251457600080fd5b6000612522848285016122ad565b91505092915050565b6000806040838503121561253e57600080fd5b600061254c858286016122ad565b925050602061255d858286016122ad565b9150509250929050565b600061257383836126ce565b60408301905092915050565b600061258b8383612aff565b905092915050565b600061259f8383612b62565b60208301905092915050565b6125b48161304f565b6125be81846130ea565b92506125c982613007565b8060005b838110156125fa5781516125e18782612567565b96506125ec8361309c565b9250506001810190506125cd565b505050505050565b600061260d8261305a565b61261781856130f5565b93508360208202850161262985613011565b8060005b858110156126655784840389528151612646858261257f565b9450612651836130a9565b925060208a0199505060018101905061262d565b50829750879550505050505092915050565b61268081613065565b61268a8184613106565b925061269582613021565b8060005b838110156126c65781516126ad8782612593565b96506126b8836130b6565b925050600181019050612699565b505050505050565b6126d781613070565b6126e18184613111565b92506126ec8261302b565b8060005b8381101561271d5781516127048782612593565b965061270f836130c3565b9250506001810190506126f0565b505050505050565b61272e81613070565b612738818461311c565b92506127438261302b565b8060005b8381101561277457815161275b8782612593565b9650612766836130c3565b925050600181019050612747565b505050505050565b6127858161307b565b61278f8184613127565b925061279a82613035565b8060005b838110156127cb5781516127b28782612593565b96506127bd836130d0565b92505060018101905061279e565b505050505050565b60006127de82613086565b6127e88185613132565b93506127f38361303f565b8060005b8381101561282457815161280b8882612593565b9750612816836130dd565b9250506001810190506127f7565b5085935050505092915050565b61283a81613170565b82525050565b61284981613170565b82525050565b600061285a82613091565b6128648185613143565b9350612874818560208601613195565b61287d81613301565b840191505092915050565b600061289382613091565b61289d8185613154565b93506128ad818560208601613195565b6128b681613301565b840191505092915050565b60006128cc82613091565b6128d68185613165565b93506128e6818560208601613195565b80840191505092915050565b60006128ff603383613154565b915061290a82613312565b604082019050919050565b6000612922601b83613154565b915061292d82613361565b602082019050919050565b6000612945601a83613154565b91506129508261338a565b602082019050919050565b6000612968602a83613154565b9150612973826133b3565b604082019050919050565b600061298b601683613154565b915061299682613402565b602082019050919050565b60006129ae601783613154565b91506129b98261342b565b602082019050919050565b60006129d1602383613154565b91506129dc82613454565b604082019050919050565b60006129f4604c83613154565b91506129ff826134a3565b606082019050919050565b6000612a17601583613154565b9150612a2282613518565b602082019050919050565b6000612a3a602a83613154565b9150612a4582613541565b604082019050919050565b6000612a5d601483613154565b9150612a6882613590565b602082019050919050565b6000612a80601283613154565b9150612a8b826135b9565b602082019050919050565b6000612aa3601c83613154565b9150612aae826135e2565b602082019050919050565b6000612ac6601383613154565b9150612ad18261360b565b602082019050919050565b6000612ae9601283613154565b9150612af482613634565b602082019050919050565b60006080830160008301518482036000860152612b1c828261284f565b9150506020830151612b316020860182612831565b506040830151612b446040860182612b62565b506060830151612b576060860182612b62565b508091505092915050565b612b6b8161317c565b82525050565b612b7a8161317c565b82525050565b6000612b8c82846128c1565b915081905092915050565b60006020820190508181036000830152612bb18184612602565b905092915050565b600061012082019050612bcf6000830187612725565b612bdc60408301866125ab565b612be960c0830185612725565b612bf7610100830184612677565b95945050505050565b600061018082019050612c166000830187612725565b612c2360408301866125ab565b612c3060c0830185612725565b612c3e61010083018461277c565b95945050505050565b60006020820190508181036000830152612c6181846127d3565b905092915050565b6000602082019050612c7e6000830184612840565b92915050565b60006020820190508181036000830152612c9e8184612888565b905092915050565b60006080820190508181036000830152612cc08187612888565b9050612ccf6020830186612840565b612cdc6040830185612b71565b612ce96060830184612b71565b95945050505050565b60006020820190508181036000830152612d0b816128f2565b9050919050565b60006020820190508181036000830152612d2b81612915565b9050919050565b60006020820190508181036000830152612d4b81612938565b9050919050565b60006020820190508181036000830152612d6b8161295b565b9050919050565b60006020820190508181036000830152612d8b8161297e565b9050919050565b60006020820190508181036000830152612dab816129a1565b9050919050565b60006020820190508181036000830152612dcb816129c4565b9050919050565b60006020820190508181036000830152612deb816129e7565b9050919050565b60006020820190508181036000830152612e0b81612a0a565b9050919050565b60006020820190508181036000830152612e2b81612a2d565b9050919050565b60006020820190508181036000830152612e4b81612a50565b9050919050565b60006020820190508181036000830152612e6b81612a73565b9050919050565b60006020820190508181036000830152612e8b81612a96565b9050919050565b60006020820190508181036000830152612eab81612ab9565b9050919050565b60006020820190508181036000830152612ecb81612adc565b9050919050565b6000602082019050612ee76000830184612b71565b92915050565b6000612ef7612f08565b9050612f0382826131fa565b919050565b6000604051905090565b600067ffffffffffffffff821115612f2d57612f2c6132d2565b5b602082029050919050565b600067ffffffffffffffff821115612f5357612f526132d2565b5b602082029050919050565b600067ffffffffffffffff821115612f7957612f786132d2565b5b602082029050919050565b600067ffffffffffffffff821115612f9f57612f9e6132d2565b5b602082029050919050565b600067ffffffffffffffff821115612fc557612fc46132d2565b5b602082029050602081019050919050565b600067ffffffffffffffff821115612ff157612ff06132d2565b5b612ffa82613301565b9050602081019050919050565b6000819050919050565b6000819050602082019050919050565b6000819050919050565b6000819050919050565b6000819050919050565b6000819050602082019050919050565b600060029050919050565b600081519050919050565b600060019050919050565b600060029050919050565b600060049050919050565b600081519050919050565b600081519050919050565b6000602082019050919050565b6000602082019050919050565b6000602082019050919050565b6000602082019050919050565b6000602082019050919050565b6000602082019050919050565b600081905092915050565b600082825260208201905092915050565b600081905092915050565b600081905092915050565b600081905092915050565b600081905092915050565b600082825260208201905092915050565b600082825260208201905092915050565b600082825260208201905092915050565b600081905092915050565b60008115159050919050565b6000819050919050565b82818337600083830152505050565b60005b838110156131b3578082015181840152602081019050613198565b838111156131c2576000848401525b50505050565b600060028204905060018216806131e057607f821691505b602082108114156131f4576131f36132a3565b5b50919050565b61320382613301565b810181811067ffffffffffffffff82111715613222576132216132d2565b5b80604052505050565b60006132368261317c565b91507fffffffffffffffffffffffffffffffffffffffffffffffffffffffffffffffff82141561326957613268613274565b5b600182019050919050565b7f4e487b7100000000000000000000000000000000000000000000000000000000600052601160045260246000fd5b7f4e487b7100000000000000000000000000000000000000000000000000000000600052602260045260246000fd5b7f4e487b7100000000000000000000000000000000000000000000000000000000600052604160045260246000fd5b6000601f19601f8301169050919050565b7f506c65617365206368616e67652073616c742c206d757374206861766520756e60008201527f69717565206d73674174746573746174696f6e00000000000000000000000000602082015250565b7f75736572206e6f7420696e207370656369666965642067726f75700000000000600082015250565b7f47726f7570204e616d6520416c72656164792045786973747321000000000000600082015250565b7f61207573657220616c726561647920657869737473207769746820746861742060008201527f7075626c6963206b657900000000000000000000000000000000000000000000602082015250565b7f496e76616c69642052656769737465722050726f6f6600000000000000000000600082015250565b7f55736572206d7573742062652072656769737465726564000000000000000000600082015250565b7f5370656369666965642047726f757020526f6f7420446f6573204e6f7420457860008201527f6973740000000000000000000000000000000000000000000000000000000000602082015250565b7f526f6f7420416c7265616479204578697374732c20692e652e2074686520677260008201527f6f757020796f752061726520747279696e6720746f2063726561746520616c7260208201527f6561647920657869737473210000000000000000000000000000000000000000604082015250565b7f496e76616c6964204d6573736167652050726f6f660000000000000000000000600082015250565b7f61207573657220646f65736e277420657869737473207769746820746861742060008201527f7075626c6963206b657900000000000000000000000000000000000000000000602082015250565b7f496e76616c69642052657665616c2050726f6f66000000000000000000000000600082015250565b7f496e76616c696420526f6f742050726f6f660000000000000000000000000000600082015250565b7f4c656166206d7573742062652072656769737465726564207573657200000000600082015250565b7f496e76616c6964204c6f67696e2050726f6f6600000000000000000000000000600082015250565b7f726f6f7420646f65736e27742065786973740000000000000000000000000000600082015250565b61366681613170565b811461367157600080fd5b50565b61367d8161317c565b811461368857600080fd5b5056fea2646970667358221220f82d9a031b4ac7a97b071ba6edc81162d21852e078f06894953eec322cc6ec9164736f6c63430008040033",
  "linkReferences": {},
  "deployedLinkReferences": {}
}