{
  "_format": "hh-sol-artifact-1",
  "contractName": "CoreStorage",
  "sourceName": "contracts/Core_Storage.sol",
  "abi": [
    {
      "inputs": [
        {
          "internalType": "uint256",
          "name": "",
          "type": "uint256"
        },
        {
          "internalType": "uint256",
          "name": "",
          "type": "uint256"
        }
      ],
      "name": "groups",
      "outputs": [
        {
          "internalType": "uint256",
          "name": "",
          "type": "uint256"
        }
      ],
      "stateMutability": "view",
      "type": "function"
    },
    {
      "inputs": [
        {
          "internalType": "uint256",
          "name": "",
          "type": "uint256"
        },
        {
          "internalType": "uint256",
          "name": "",
          "type": "uint256"
        }
      ],
      "name": "messages",
      "outputs": [
        {
          "internalType": "string",
          "name": "text",
          "type": "string"
        },
        {
          "internalType": "bool",
          "name": "revealed",
          "type": "bool"
        },
        {
          "internalType": "uint256",
          "name": "leaf",
          "type": "uint256"
        },
        {
          "internalType": "uint256",
          "name": "msgAttestation",
          "type": "uint256"
        }
      ],
      "stateMutability": "view",
      "type": "function"
    },
    {
      "inputs": [
        {
          "internalType": "uint256",
          "name": "",
          "type": "uint256"
        }
      ],
      "name": "msgAttestations",
      "outputs": [
        {
          "internalType": "bool",
          "name": "",
          "type": "bool"
        }
      ],
      "stateMutability": "view",
      "type": "function"
    },
    {
      "inputs": [
        {
          "internalType": "uint256",
          "name": "",
          "type": "uint256"
        }
      ],
      "name": "registeredUsers",
      "outputs": [
        {
          "internalType": "bool",
          "name": "",
          "type": "bool"
        }
      ],
      "stateMutability": "view",
      "type": "function"
    },
    {
      "inputs": [
        {
          "internalType": "uint256",
          "name": "",
          "type": "uint256"
        }
      ],
      "name": "roots",
      "outputs": [
        {
          "internalType": "uint256",
          "name": "",
          "type": "uint256"
        }
      ],
      "stateMutability": "view",
      "type": "function"
    },
    {
      "inputs": [
        {
          "internalType": "uint256",
          "name": "",
          "type": "uint256"
        }
      ],
      "name": "users",
      "outputs": [
        {
          "internalType": "uint256",
          "name": "",
          "type": "uint256"
        }
      ],
      "stateMutability": "view",
      "type": "function"
    }
  ],
  "bytecode": "0x608060405234801561001057600080fd5b5061059c806100206000396000f3fe608060405234801561001057600080fd5b50600436106100625760003560e01c8063365b98b2146100675780634ae855cf146100975780637259e0f8146100c75780638f272112146100f7578063be0cc32d1461012a578063c2b40ae41461015a575b600080fd5b610081600480360381019061007c919061033a565b61018a565b60405161008e919061045d565b60405180910390f35b6100b160048036038101906100ac9190610363565b6101ae565b6040516100be919061045d565b60405180910390f35b6100e160048036038101906100dc919061033a565b6101df565b6040516100ee91906103f6565b60405180910390f35b610111600480360381019061010c9190610363565b6101ff565b6040516101219493929190610411565b60405180910390f35b610144600480360381019061013f919061033a565b6102e1565b60405161015191906103f6565b60405180910390f35b610174600480360381019061016f919061033a565b610301565b604051610181919061045d565b60405180910390f35b6006818154811061019a57600080fd5b906000526020600020016000915090505481565b600860205281600052604060002081815481106101ca57600080fd5b90600052602060002001600091509150505481565b60036020528060005260406000206000915054906101000a900460ff1681565b6007602052816000526040600020818154811061021b57600080fd5b90600052602060002090600402016000915091505080600001805461023f906104dd565b80601f016020809104026020016040519081016040528092919081815260200182805461026b906104dd565b80156102b85780601f1061028d576101008083540402835291602001916102b8565b820191906000526020600020905b81548152906001019060200180831161029b57829003601f168201915b5050505050908060010160009054906101000a900460ff16908060020154908060030154905084565b60046020528060005260406000206000915054906101000a900460ff1681565b6005818154811061031157600080fd5b906000526020600020016000915090505481565b6000813590506103348161054f565b92915050565b60006020828403121561034c57600080fd5b600061035a84828501610325565b91505092915050565b6000806040838503121561037657600080fd5b600061038485828601610325565b925050602061039585828601610325565b9150509250929050565b6103a881610494565b82525050565b60006103b982610478565b6103c38185610483565b93506103d38185602086016104aa565b6103dc8161053e565b840191505092915050565b6103f0816104a0565b82525050565b600060208201905061040b600083018461039f565b92915050565b6000608082019050818103600083015261042b81876103ae565b905061043a602083018661039f565b61044760408301856103e7565b61045460608301846103e7565b95945050505050565b600060208201905061047260008301846103e7565b92915050565b600081519050919050565b600082825260208201905092915050565b60008115159050919050565b6000819050919050565b60005b838110156104c85780820151818401526020810190506104ad565b838111156104d7576000848401525b50505050565b600060028204905060018216806104f557607f821691505b602082108114156105095761050861050f565b5b50919050565b7f4e487b7100000000000000000000000000000000000000000000000000000000600052602260045260246000fd5b6000601f19601f8301169050919050565b610558816104a0565b811461056357600080fd5b5056fea2646970667358221220fb3391df40bb4f1f6236f2ca1c9a941331634b2e91fa84615253022d9a8c62f464736f6c63430008040033",
  "linkReferences": {},
  "deployedLinkReferences": {}
}